{
  "_format": "hh-sol-artifact-1",
  "contractName": "DynamicConsent",
  "sourceName": "contracts/DynamicConsent.sol",
  "abi": [
    {
      "inputs": [
        {
          "internalType": "uint256",
          "name": "",
          "type": "uint256"
        }
      ],
      "name": "patientIDs",
      "outputs": [
        {
          "internalType": "uint256",
          "name": "",
          "type": "uint256"
        }
      ],
      "stateMutability": "view",
      "type": "function"
    },
    {
      "inputs": [
        {
          "internalType": "uint256",
          "name": "",
          "type": "uint256"
        },
        {
          "internalType": "uint256",
          "name": "",
          "type": "uint256"
        },
        {
          "internalType": "string",
          "name": "",
          "type": "string"
        }
      ],
      "name": "patientStudyCategories",
      "outputs": [
        {
          "internalType": "bool",
          "name": "",
          "type": "bool"
        }
      ],
      "stateMutability": "view",
      "type": "function"
    },
    {
      "inputs": [
        {
          "internalType": "uint256",
          "name": "",
          "type": "uint256"
        },
        {
          "internalType": "uint256",
          "name": "",
          "type": "uint256"
        }
      ],
      "name": "patientStudyConsents",
      "outputs": [
        {
          "internalType": "uint256",
          "name": "patientID",
          "type": "uint256"
        },
        {
          "internalType": "uint256",
          "name": "studyID",
          "type": "uint256"
        },
        {
          "internalType": "uint256",
          "name": "recordTime",
          "type": "uint256"
        }
      ],
      "stateMutability": "view",
      "type": "function"
    },
    {
      "inputs": [
        {
          "internalType": "uint256",
          "name": "",
          "type": "uint256"
        },
        {
          "internalType": "uint256",
          "name": "",
          "type": "uint256"
        },
        {
          "internalType": "string",
          "name": "",
          "type": "string"
        }
      ],
      "name": "patientStudyElements",
      "outputs": [
        {
          "internalType": "bool",
          "name": "",
          "type": "bool"
        }
      ],
      "stateMutability": "view",
      "type": "function"
    },
    {
      "inputs": [
        {
          "internalType": "uint256",
          "name": "_patientID",
          "type": "uint256"
        },
        {
          "internalType": "int256",
          "name": "_studyID",
          "type": "int256"
        },
        {
          "internalType": "int256",
          "name": "_startTime",
          "type": "int256"
        },
        {
          "internalType": "int256",
          "name": "_endTime",
          "type": "int256"
        }
      ],
      "name": "queryForPatient",
      "outputs": [
        {
          "internalType": "string",
          "name": "",
          "type": "string"
        }
      ],
      "stateMutability": "view",
      "type": "function"
    },
    {
      "inputs": [
        {
          "internalType": "uint256",
          "name": "_studyID",
          "type": "uint256"
        },
        {
          "internalType": "int256",
          "name": "_endTime",
          "type": "int256"
        },
        {
          "internalType": "string[]",
          "name": "_requestedCategoryChoices",
          "type": "string[]"
        },
        {
          "internalType": "string[]",
          "name": "_requestedElementChoices",
          "type": "string[]"
        }
      ],
      "name": "queryForResearcher",
      "outputs": [
        {
          "internalType": "uint256[]",
          "name": "",
          "type": "uint256[]"
        }
      ],
      "stateMutability": "view",
      "type": "function"
    },
    {
      "inputs": [
        {
          "internalType": "uint256",
          "name": "_patientID",
          "type": "uint256"
        },
        {
          "internalType": "uint256",
          "name": "_studyID",
          "type": "uint256"
        },
        {
          "internalType": "uint256",
          "name": "_recordTime",
          "type": "uint256"
        },
        {
          "internalType": "string[]",
          "name": "_categoryChoices",
          "type": "string[]"
        },
        {
          "internalType": "string[]",
          "name": "_elementChoices",
          "type": "string[]"
        }
      ],
      "name": "storeConsentFromJSON",
      "outputs": [],
      "stateMutability": "nonpayable",
      "type": "function"
    },
    {
      "inputs": [
        {
          "internalType": "uint256",
          "name": "_patientID",
          "type": "uint256"
        },
        {
          "internalType": "uint256",
          "name": "_studyID",
          "type": "uint256"
        },
        {
          "internalType": "uint256",
          "name": "_recordTime",
          "type": "uint256"
        },
        {
          "internalType": "string[]",
          "name": "_patientCategoryChoices",
          "type": "string[]"
        },
        {
          "internalType": "string[]",
          "name": "_patientElementChoices",
          "type": "string[]"
        }
      ],
      "name": "storeRecord",
      "outputs": [],
      "stateMutability": "nonpayable",
      "type": "function"
    },
    {
      "inputs": [
        {
          "internalType": "uint256",
          "name": "",
          "type": "uint256"
        }
      ],
      "name": "studyIDs",
      "outputs": [
        {
          "internalType": "uint256",
          "name": "",
          "type": "uint256"
        }
      ],
      "stateMutability": "view",
      "type": "function"
    }
  ],
  "bytecode": "0x608060405234801561001057600080fd5b5061239d806100206000396000f3fe608060405234801561001057600080fd5b50600436106100935760003560e01c806376f8487f1161006657806376f8487f146101325780637fb8998f14610162578063df4f2a7a14610192578063df6bd4ba146101c2578063fcf03be0146101f257610093565b8063127f9ecb1461009857806321737237146100b4578063302c8ef7146100d057806349633dc714610100575b600080fd5b6100b260048036038101906100ad919061152f565b610222565b005b6100ce60048036038101906100c9919061152f565b61023a565b005b6100ea60048036038101906100e5919061172c565b610620565b6040516100f791906117b6565b60405180910390f35b61011a600480360381019061011591906117d1565b610672565b60405161012993929190611820565b60405180910390f35b61014c6004803603810190610147919061188d565b6106a9565b60405161015991906119f2565b60405180910390f35b61017c60048036038101906101779190611a14565b610b91565b6040516101899190611a41565b60405180910390f35b6101ac60048036038101906101a79190611a14565b610bb5565b6040516101b99190611a41565b60405180910390f35b6101dc60048036038101906101d79190611a5c565b610bd9565b6040516101e99190611b42565b60405180910390f35b61020c6004803603810190610207919061172c565b610e19565b60405161021991906117b6565b60405180910390f35b6102318787878787878761023a565b50505050505050565b6000806000898152602001908152602001600020600088815260200190815260200160002090508060020154861115610616578781600001819055508681600101819055508581600201819055506102928888610e6b565b6000805b6005805490508110156102e45789600582815481106102b8576102b7611b64565b5b9060005260206000200154036102d157600191506102e4565b80806102dc90611bc2565b915050610296565b50806103145760058990806001815401808255809150506001900390600052602060002001600090919091909150555b6000805b60068054905081101561036657896006828154811061033a57610339611b64565b5b9060005260206000200154036103535760019150610366565b808061035e90611bc2565b915050610318565b50806103965760068990806001815401808255809150506001900390600052602060002001600090919091909150555b60005b878790508110156104d35760008888838181106103b9576103b8611b64565b5b90506020028101906103cb9190611c19565b8080601f016020809104026020016040519081016040528093929190818152602001838380828437600081840152601f19601f82011690508083019250505050505050905060018060008e815260200190815260200160002060008d8152602001908152602001600020826040516104439190611cb8565b908152602001604051809103902060006101000a81548160ff021916908315150217905550600360008d815260200190815260200160002060008c8152602001908152602001600020819080600181540180825580915050600190039060005260206000200160009091909190915090816104be9190611edb565b505080806104cb90611bc2565b915050610399565b5060005b858590508110156106125760008686838181106104f7576104f6611b64565b5b90506020028101906105099190611c19565b8080601f016020809104026020016040519081016040528093929190818152602001838380828437600081840152601f19601f8201169050808301925050505050505090506001600260008e815260200190815260200160002060008d8152602001908152602001600020826040516105829190611cb8565b908152602001604051809103902060006101000a81548160ff021916908315150217905550600460008d815260200190815260200160002060008c8152602001908152602001600020819080600181540180825580915050600190039060005260206000200160009091909190915090816105fd9190611edb565b5050808061060a90611bc2565b9150506104d7565b5050505b5050505050505050565b600160205282600052604060002060205281600052604060002081805160208101820180518482526020830160208501208183528095505050505050600092509250509054906101000a900460ff1681565b6000602052816000526040600020602052806000526040600020600091509150508060000154908060010154908060020154905083565b60608060007fffffffffffffffffffffffffffffffffffffffffffffffffffffffffffffffff88036106fd577fffffffffffffffffffffffffffffffffffffffffffffffffffffffffffffffff9050610745565b6000881215610741576040517f08c379a000000000000000000000000000000000000000000000000000000000815260040161073890611ff9565b60405180910390fd5b8790505b60005b600580549050811015610b815760006005828154811061076b5761076a611b64565b5b9060005260206000200154905060005b600680549050811015610b6c5760008c905060008060008581526020019081526020016000206000838152602001908152602001600020905085816002015411610b575760006001905060005b8d8d90508110156108db576000805b600360008981526020019081526020016000206000878152602001908152602001600020805490508110156108b7578f8f8481811061081957610818611b64565b5b905060200281019061082b9190611c19565b604051610839929190612049565b6040518091039020600360008a81526020019081526020016000206000888152602001908152602001600020828154811061087757610876611b64565b5b9060005260206000200160405161088e91906120fa565b6040518091039020036108a457600191506108b7565b80806108af90611bc2565b9150506107d7565b50806108c75760009250506108db565b5080806108d390611bc2565b9150506107c8565b5060005b8b8b90508110156109f2576000805b600460008981526020019081526020016000206000878152602001908152602001600020805490508110156109ce578d8d848181106109305761092f611b64565b5b90506020028101906109429190611c19565b604051610950929190612049565b6040518091039020600460008a81526020019081526020016000206000888152602001908152602001600020828154811061098e5761098d611b64565b5b906000526020600020016040516109a591906120fa565b6040518091039020036109bb57600191506109ce565b80806109c690611bc2565b9150506108ee565b50806109de5760009250506109f2565b5080806109ea90611bc2565b9150506108df565b508015610b55576000885103610a7457600167ffffffffffffffff811115610a1d57610a1c611601565b5b604051908082528060200260200182016040528015610a4b5781602001602082028036833780820191505090505b5097508488600081518110610a6357610a62611b64565b5b602002602001018181525050610b54565b600060018951610a849190612111565b905060008167ffffffffffffffff811115610aa257610aa1611601565b5b604051908082528060200260200182016040528015610ad05781602001602082028036833780820191505090505b50905060005b8a51811015610b2c578a8181518110610af257610af1611b64565b5b6020026020010151828281518110610b0d57610b0c611b64565b5b6020026020010181815250508080610b2490611bc2565b915050610ad6565b5086818b5181518110610b4257610b41611b64565b5b60200260200101818152505080995050505b5b505b50508080610b6490611bc2565b91505061077b565b50508080610b7990611bc2565b915050610748565b5081925050509695505050505050565b60058181548110610ba157600080fd5b906000526020600020016000915090505481565b60068181548110610bc557600080fd5b906000526020600020016000915090505481565b6060806000805b600580549050811015610d5257600060058281548110610c0357610c02611b64565b5b90600052602060002001549050888103610d3e5760005b600680549050811015610d3c57600060068281548110610c3d57610c3c611b64565b5b906000526020600020015490507fffffffffffffffffffffffffffffffffffffffffffffffffffffffffffffffff8a1480610c7757508981145b15610d28576000806000858152602001908152602001600020600083815260200190815260200160002090506000816002015490508a8110158015610cbc5750898111155b15610d25576000610ccd8685610fdf565b90506000610cdb87866110ff565b9050600085848484604051602001610cf694939291906121b2565b6040516020818303038152906040529050610d118b8261121f565b9a508980610d1e90611bc2565b9a50505050505b50505b508080610d3490611bc2565b915050610c1a565b505b508080610d4a90611bc2565b915050610be0565b5060008167ffffffffffffffff811115610d6f57610d6e611601565b5b604051908082528060200260200182016040528015610da257816020015b6060815260200190600190039081610d8d5790505b50905060005b82811015610dfc57838181518110610dc357610dc2611b64565b5b6020026020010151828281518110610dde57610ddd611b64565b5b60200260200101819052508080610df490611bc2565b915050610da8565b506000610e0884611303565b905080945050505050949350505050565b600260205282600052604060002060205281600052604060002081805160208101820180518482526020830160208501208183528095505050505050600092509250509054906101000a900460ff1681565b6000600360008481526020019081526020016000206000838152602001908152602001600020905060005b8180549050811015610f2157600160008581526020019081526020016000206000848152602001908152602001600020828281548110610ed957610ed8611b64565b5b90600052602060002001604051610ef0919061229c565b908152602001604051809103902060006101000a81549060ff02191690558080610f1990611bc2565b915050610e96565b506000600460008581526020019081526020016000206000848152602001908152602001600020905060005b8180549050811015610fd857600260008681526020019081526020016000206000858152602001908152602001600020828281548110610f9057610f8f611b64565b5b90600052602060002001604051610fa7919061229c565b908152602001604051809103902060006101000a81549060ff02191690558080610fd090611bc2565b915050610f4d565b5050505050565b60606000600360008581526020019081526020016000206000848152602001908152602001600020905060006040518060400160405280600181526020017f5b00000000000000000000000000000000000000000000000000000000000000815250905060005b82805490508110156110d157600081111561107e578160405160200161106c91906122b3565b60405160208183030381529060405291505b8183828154811061109257611091611b64565b5b906000526020600020016040516020016110ad9291906122d5565b604051602081830303815290604052915080806110c990611bc2565b915050611046565b50806040516020016110e39190612345565b6040516020818303038152906040529050809250505092915050565b60606000600460008581526020019081526020016000206000848152602001908152602001600020905060006040518060400160405280600181526020017f5b00000000000000000000000000000000000000000000000000000000000000815250905060005b82805490508110156111f157600081111561119e578160405160200161118c91906122b3565b60405160208183030381529060405291505b818382815481106111b2576111b1611b64565b5b906000526020600020016040516020016111cd9291906122d5565b604051602081830303815290604052915080806111e990611bc2565b915050611166565b50806040516020016112039190612345565b6040516020818303038152906040529050809250505092915050565b60606000600184516112319190612111565b67ffffffffffffffff81111561124a57611249611601565b5b60405190808252806020026020018201604052801561127d57816020015b60608152602001906001900390816112685790505b50905060005b84518110156112d85784818151811061129f5761129e611b64565b5b60200260200101518282815181106112ba576112b9611b64565b5b602002602001018190525080806112d090611bc2565b915050611283565b5082818551815181106112ee576112ed611b64565b5b60200260200101819052508091505092915050565b60606000805b835181101561134e5783818151811061132557611324611b64565b5b602002602001015151826113399190612111565b9150808061134690611bc2565b915050611309565b5060008167ffffffffffffffff81111561136b5761136a611601565b5b6040519080825280601f01601f19166020018201604052801561139d5781602001600182028036833780820191505090505b5090506000805b85518110156114745760008682815181106113c2576113c1611b64565b5b6020026020010151905060008151905060005b8181101561145e578281815181106113f0576113ef611b64565b5b602001015160f81c60f81b86868151811061140e5761140d611b64565b5b60200101907effffffffffffffffffffffffffffffffffffffffffffffffffffffffffffff1916908160001a905350848061144890611bc2565b955050808061145690611bc2565b9150506113d5565b505050808061146c90611bc2565b9150506113a4565b50819350505050919050565b6000604051905090565b600080fd5b600080fd5b6000819050919050565b6114a781611494565b81146114b257600080fd5b50565b6000813590506114c48161149e565b92915050565b600080fd5b600080fd5b600080fd5b60008083601f8401126114ef576114ee6114ca565b5b8235905067ffffffffffffffff81111561150c5761150b6114cf565b5b602083019150836020820283011115611528576115276114d4565b5b9250929050565b600080600080600080600060a0888a03121561154e5761154d61148a565b5b600061155c8a828b016114b5565b975050602061156d8a828b016114b5565b965050604061157e8a828b016114b5565b955050606088013567ffffffffffffffff81111561159f5761159e61148f565b5b6115ab8a828b016114d9565b9450945050608088013567ffffffffffffffff8111156115ce576115cd61148f565b5b6115da8a828b016114d9565b925092505092959891949750929550565b600080fd5b6000601f19601f8301169050919050565b7f4e487b7100000000000000000000000000000000000000000000000000000000600052604160045260246000fd5b611639826115f0565b810181811067ffffffffffffffff8211171561165857611657611601565b5b80604052505050565b600061166b611480565b90506116778282611630565b919050565b600067ffffffffffffffff82111561169757611696611601565b5b6116a0826115f0565b9050602081019050919050565b82818337600083830152505050565b60006116cf6116ca8461167c565b611661565b9050828152602081018484840111156116eb576116ea6115eb565b5b6116f68482856116ad565b509392505050565b600082601f830112611713576117126114ca565b5b81356117238482602086016116bc565b91505092915050565b6000806000606084860312156117455761174461148a565b5b6000611753868287016114b5565b9350506020611764868287016114b5565b925050604084013567ffffffffffffffff8111156117855761178461148f565b5b611791868287016116fe565b9150509250925092565b60008115159050919050565b6117b08161179b565b82525050565b60006020820190506117cb60008301846117a7565b92915050565b600080604083850312156117e8576117e761148a565b5b60006117f6858286016114b5565b9250506020611807858286016114b5565b9150509250929050565b61181a81611494565b82525050565b60006060820190506118356000830186611811565b6118426020830185611811565b61184f6040830184611811565b949350505050565b6000819050919050565b61186a81611857565b811461187557600080fd5b50565b60008135905061188781611861565b92915050565b600080600080600080608087890312156118aa576118a961148a565b5b60006118b889828a016114b5565b96505060206118c989828a01611878565b955050604087013567ffffffffffffffff8111156118ea576118e961148f565b5b6118f689828a016114d9565b9450945050606087013567ffffffffffffffff8111156119195761191861148f565b5b61192589828a016114d9565b92509250509295509295509295565b600081519050919050565b600082825260208201905092915050565b6000819050602082019050919050565b61196981611494565b82525050565b600061197b8383611960565b60208301905092915050565b6000602082019050919050565b600061199f82611934565b6119a9818561193f565b93506119b483611950565b8060005b838110156119e55781516119cc888261196f565b97506119d783611987565b9250506001810190506119b8565b5085935050505092915050565b60006020820190508181036000830152611a0c8184611994565b905092915050565b600060208284031215611a2a57611a2961148a565b5b6000611a38848285016114b5565b91505092915050565b6000602082019050611a566000830184611811565b92915050565b60008060008060808587031215611a7657611a7561148a565b5b6000611a84878288016114b5565b9450506020611a9587828801611878565b9350506040611aa687828801611878565b9250506060611ab787828801611878565b91505092959194509250565b600081519050919050565b600082825260208201905092915050565b60005b83811015611afd578082015181840152602081019050611ae2565b60008484015250505050565b6000611b1482611ac3565b611b1e8185611ace565b9350611b2e818560208601611adf565b611b37816115f0565b840191505092915050565b60006020820190508181036000830152611b5c8184611b09565b905092915050565b7f4e487b7100000000000000000000000000000000000000000000000000000000600052603260045260246000fd5b7f4e487b7100000000000000000000000000000000000000000000000000000000600052601160045260246000fd5b6000611bcd82611494565b91507fffffffffffffffffffffffffffffffffffffffffffffffffffffffffffffffff8203611bff57611bfe611b93565b5b600182019050919050565b600080fd5b600080fd5b600080fd5b60008083356001602003843603038112611c3657611c35611c0a565b5b80840192508235915067ffffffffffffffff821115611c5857611c57611c0f565b5b602083019250600182023603831315611c7457611c73611c14565b5b509250929050565b600081905092915050565b6000611c9282611ac3565b611c9c8185611c7c565b9350611cac818560208601611adf565b80840191505092915050565b6000611cc48284611c87565b915081905092915050565b7f4e487b7100000000000000000000000000000000000000000000000000000000600052602260045260246000fd5b60006002820490506001821680611d1657607f821691505b602082108103611d2957611d28611ccf565b5b50919050565b60008190508160005260206000209050919050565b60006020601f8301049050919050565b600082821b905092915050565b600060088302611d917fffffffffffffffffffffffffffffffffffffffffffffffffffffffffffffffff82611d54565b611d9b8683611d54565b95508019841693508086168417925050509392505050565b6000819050919050565b6000611dd8611dd3611dce84611494565b611db3565b611494565b9050919050565b6000819050919050565b611df283611dbd565b611e06611dfe82611ddf565b848454611d61565b825550505050565b600090565b611e1b611e0e565b611e26818484611de9565b505050565b5b81811015611e4a57611e3f600082611e13565b600181019050611e2c565b5050565b601f821115611e8f57611e6081611d2f565b611e6984611d44565b81016020851015611e78578190505b611e8c611e8485611d44565b830182611e2b565b50505b505050565b600082821c905092915050565b6000611eb260001984600802611e94565b1980831691505092915050565b6000611ecb8383611ea1565b9150826002028217905092915050565b611ee482611ac3565b67ffffffffffffffff811115611efd57611efc611601565b5b611f078254611cfe565b611f12828285611e4e565b600060209050601f831160018114611f455760008415611f33578287015190505b611f3d8582611ebf565b865550611fa5565b601f198416611f5386611d2f565b60005b82811015611f7b57848901518255600182019150602085019450602081019050611f56565b86831015611f985784890151611f94601f891682611ea1565b8355505b6001600288020188555050505b505050505050565b7f496e76616c6964205f656e6454696d6500000000000000000000000000000000600082015250565b6000611fe3601083611ace565b9150611fee82611fad565b602082019050919050565b6000602082019050818103600083015261201281611fd6565b9050919050565b600081905092915050565b60006120308385612019565b935061203d8385846116ad565b82840190509392505050565b6000612056828486612024565b91508190509392505050565b60008190508160005260206000209050919050565b6000815461208481611cfe565b61208e8186612019565b945060018216600081146120a957600181146120be576120f1565b60ff19831686528115158202860193506120f1565b6120c785612062565b60005b838110156120e9578154818901526001820191506020810190506120ca565b838801955050505b50505092915050565b60006121068284612077565b915081905092915050565b600061211c82611494565b915061212783611494565b925082820190508082111561213f5761213e611b93565b5b92915050565b6000819050919050565b61216061215b82611494565b612145565b82525050565b7f2c00000000000000000000000000000000000000000000000000000000000000600082015250565b600061219c600183611c7c565b91506121a782612166565b600182019050919050565b60006121be828761214f565b6020820191506121cd8261218f565b91506121d9828661214f565b6020820191506121e88261218f565b91506121f48285611c87565b91506121ff8261218f565b915061220b8284611c87565b915081905095945050505050565b6000815461222681611cfe565b6122308186611c7c565b9450600182166000811461224b576001811461226057612293565b60ff1983168652811515820286019350612293565b61226985611d2f565b60005b8381101561228b5781548189015260018201915060208101905061226c565b838801955050505b50505092915050565b60006122a88284612219565b915081905092915050565b60006122bf8284611c87565b91506122ca8261218f565b915081905092915050565b60006122e18285611c87565b91506122ed8284612219565b91508190509392505050565b7f5d00000000000000000000000000000000000000000000000000000000000000600082015250565b600061232f600183611c7c565b915061233a826122f9565b600182019050919050565b60006123518284611c87565b915061235c82612322565b91508190509291505056fea26469706673582212207885b1c75aa898d669d3063555fb1adabae6c2fc3e1d1a8ef329b117e546feb764736f6c63430008130033",
  "linkReferences": {},
  "deployedLinkReferences": {}
}