{"contracts/DynamicConsent.sol":{"DynamicConsent":{"abi":[{"inputs":[{"internalType":"uint256","name":"","type":"uint256"}],"name":"patientIDs","outputs":[{"internalType":"uint256","name":"","type":"uint256"}],"stateMutability":"view","type":"function"},{"inputs":[{"internalType":"uint256","name":"","type":"uint256"},{"internalType":"uint256","name":"","type":"uint256"},{"internalType":"string","name":"","type":"string"}],"name":"patientStudyCategories","outputs":[{"internalType":"bool","name":"","type":"bool"}],"stateMutability":"view","type":"function"},{"inputs":[{"internalType":"uint256","name":"","type":"uint256"},{"internalType":"uint256","name":"","type":"uint256"}],"name":"patientStudyConsents","outputs":[{"internalType":"uint256","name":"patientID","type":"uint256"},{"internalType":"uint256","name":"studyID","type":"uint256"},{"internalType":"uint256","name":"recordTime","type":"uint256"}],"stateMutability":"view","type":"function"},{"inputs":[{"internalType":"uint256","name":"","type":"uint256"},{"internalType":"uint256","name":"","type":"uint256"},{"internalType":"string","name":"","type":"string"}],"name":"patientStudyElements","outputs":[{"internalType":"bool","name":"","type":"bool"}],"stateMutability":"view","type":"function"},{"inputs":[{"internalType":"uint256","name":"_patientID","type":"uint256"},{"internalType":"int256","name":"_studyID","type":"int256"},{"internalType":"int256","name":"_startTime","type":"int256"},{"internalType":"int256","name":"_endTime","type":"int256"}],"name":"queryForPatient","outputs":[{"internalType":"string","name":"","type":"string"}],"stateMutability":"view","type":"function"},{"inputs":[{"internalType":"uint256","name":"_studyID","type":"uint256"},{"internalType":"int256","name":"_endTime","type":"int256"},{"internalType":"string[]","name":"_requestedCategoryChoices","type":"string[]"},{"internalType":"string[]","name":"_requestedElementChoices","type":"string[]"}],"name":"queryForResearcher","outputs":[{"internalType":"uint256[]","name":"","type":"uint256[]"}],"stateMutability":"view","type":"function"},{"inputs":[{"internalType":"uint256","name":"_patientID","type":"uint256"},{"internalType":"uint256","name":"_studyID","type":"uint256"},{"internalType":"uint256","name":"_recordTime","type":"uint256"},{"internalType":"string[]","name":"_categoryChoices","type":"string[]"},{"internalType":"string[]","name":"_elementChoices","type":"string[]"}],"name":"storeConsentFromJSON","outputs":[],"stateMutability":"nonpayable","type":"function"},{"inputs":[{"internalType":"uint256","name":"_patientID","type":"uint256"},{"internalType":"uint256","name":"_studyID","type":"uint256"},{"internalType":"uint256","name":"_recordTime","type":"uint256"},{"internalType":"string[]","name":"_patientCategoryChoices","type":"string[]"},{"internalType":"string[]","name":"_patientElementChoices","type":"string[]"}],"name":"storeRecord","outputs":[],"stateMutability":"nonpayable","type":"function"},{"inputs":[{"internalType":"uint256","name":"","type":"uint256"}],"name":"studyIDs","outputs":[{"internalType":"uint256","name":"","type":"uint256"}],"stateMutability":"view","type":"function"}],"evm":{"bytecode":{"linkReferences":{},"object":"608060405234801561001057600080fd5b5061239d806100206000396000f3fe608060405234801561001057600080fd5b50600436106100935760003560e01c806376f8487f1161006657806376f8487f146101325780637fb8998f14610162578063df4f2a7a14610192578063df6bd4ba146101c2578063fcf03be0146101f257610093565b8063127f9ecb1461009857806321737237146100b4578063302c8ef7146100d057806349633dc714610100575b600080fd5b6100b260048036038101906100ad919061152f565b610222565b005b6100ce60048036038101906100c9919061152f565b61023a565b005b6100ea60048036038101906100e5919061172c565b610620565b6040516100f791906117b6565b60405180910390f35b61011a600480360381019061011591906117d1565b610672565b60405161012993929190611820565b60405180910390f35b61014c6004803603810190610147919061188d565b6106a9565b60405161015991906119f2565b60405180910390f35b61017c60048036038101906101779190611a14565b610b91565b6040516101899190611a41565b60405180910390f35b6101ac60048036038101906101a79190611a14565b610bb5565b6040516101b99190611a41565b60405180910390f35b6101dc60048036038101906101d79190611a5c565b610bd9565b6040516101e99190611b42565b60405180910390f35b61020c6004803603810190610207919061172c565b610e19565b60405161021991906117b6565b60405180910390f35b6102318787878787878761023a565b50505050505050565b6000806000898152602001908152602001600020600088815260200190815260200160002090508060020154861115610616578781600001819055508681600101819055508581600201819055506102928888610e6b565b6000805b6005805490508110156102e45789600582815481106102b8576102b7611b64565b5b9060005260206000200154036102d157600191506102e4565b80806102dc90611bc2565b915050610296565b50806103145760058990806001815401808255809150506001900390600052602060002001600090919091909150555b6000805b60068054905081101561036657896006828154811061033a57610339611b64565b5b9060005260206000200154036103535760019150610366565b808061035e90611bc2565b915050610318565b50806103965760068990806001815401808255809150506001900390600052602060002001600090919091909150555b60005b878790508110156104d35760008888838181106103b9576103b8611b64565b5b90506020028101906103cb9190611c19565b8080601f016020809104026020016040519081016040528093929190818152602001838380828437600081840152601f19601f82011690508083019250505050505050905060018060008e815260200190815260200160002060008d8152602001908152602001600020826040516104439190611cb8565b908152602001604051809103902060006101000a81548160ff021916908315150217905550600360008d815260200190815260200160002060008c8152602001908152602001600020819080600181540180825580915050600190039060005260206000200160009091909190915090816104be9190611edb565b505080806104cb90611bc2565b915050610399565b5060005b858590508110156106125760008686838181106104f7576104f6611b64565b5b90506020028101906105099190611c19565b8080601f016020809104026020016040519081016040528093929190818152602001838380828437600081840152601f19601f8201169050808301925050505050505090506001600260008e815260200190815260200160002060008d8152602001908152602001600020826040516105829190611cb8565b908152602001604051809103902060006101000a81548160ff021916908315150217905550600460008d815260200190815260200160002060008c8152602001908152602001600020819080600181540180825580915050600190039060005260206000200160009091909190915090816105fd9190611edb565b5050808061060a90611bc2565b9150506104d7565b5050505b5050505050505050565b600160205282600052604060002060205281600052604060002081805160208101820180518482526020830160208501208183528095505050505050600092509250509054906101000a900460ff1681565b6000602052816000526040600020602052806000526040600020600091509150508060000154908060010154908060020154905083565b60608060007fffffffffffffffffffffffffffffffffffffffffffffffffffffffffffffffff88036106fd577fffffffffffffffffffffffffffffffffffffffffffffffffffffffffffffffff9050610745565b6000881215610741576040517f08c379a000000000000000000000000000000000000000000000000000000000815260040161073890611ff9565b60405180910390fd5b8790505b60005b600580549050811015610b815760006005828154811061076b5761076a611b64565b5b9060005260206000200154905060005b600680549050811015610b6c5760008c905060008060008581526020019081526020016000206000838152602001908152602001600020905085816002015411610b575760006001905060005b8d8d90508110156108db576000805b600360008981526020019081526020016000206000878152602001908152602001600020805490508110156108b7578f8f8481811061081957610818611b64565b5b905060200281019061082b9190611c19565b604051610839929190612049565b6040518091039020600360008a81526020019081526020016000206000888152602001908152602001600020828154811061087757610876611b64565b5b9060005260206000200160405161088e91906120fa565b6040518091039020036108a457600191506108b7565b80806108af90611bc2565b9150506107d7565b50806108c75760009250506108db565b5080806108d390611bc2565b9150506107c8565b5060005b8b8b90508110156109f2576000805b600460008981526020019081526020016000206000878152602001908152602001600020805490508110156109ce578d8d848181106109305761092f611b64565b5b90506020028101906109429190611c19565b604051610950929190612049565b6040518091039020600460008a81526020019081526020016000206000888152602001908152602001600020828154811061098e5761098d611b64565b5b906000526020600020016040516109a591906120fa565b6040518091039020036109bb57600191506109ce565b80806109c690611bc2565b9150506108ee565b50806109de5760009250506109f2565b5080806109ea90611bc2565b9150506108df565b508015610b55576000885103610a7457600167ffffffffffffffff811115610a1d57610a1c611601565b5b604051908082528060200260200182016040528015610a4b5781602001602082028036833780820191505090505b5097508488600081518110610a6357610a62611b64565b5b602002602001018181525050610b54565b600060018951610a849190612111565b905060008167ffffffffffffffff811115610aa257610aa1611601565b5b604051908082528060200260200182016040528015610ad05781602001602082028036833780820191505090505b50905060005b8a51811015610b2c578a8181518110610af257610af1611b64565b5b6020026020010151828281518110610b0d57610b0c611b64565b5b6020026020010181815250508080610b2490611bc2565b915050610ad6565b5086818b5181518110610b4257610b41611b64565b5b60200260200101818152505080995050505b5b505b50508080610b6490611bc2565b91505061077b565b50508080610b7990611bc2565b915050610748565b5081925050509695505050505050565b60058181548110610ba157600080fd5b906000526020600020016000915090505481565b60068181548110610bc557600080fd5b906000526020600020016000915090505481565b6060806000805b600580549050811015610d5257600060058281548110610c0357610c02611b64565b5b90600052602060002001549050888103610d3e5760005b600680549050811015610d3c57600060068281548110610c3d57610c3c611b64565b5b906000526020600020015490507fffffffffffffffffffffffffffffffffffffffffffffffffffffffffffffffff8a1480610c7757508981145b15610d28576000806000858152602001908152602001600020600083815260200190815260200160002090506000816002015490508a8110158015610cbc5750898111155b15610d25576000610ccd8685610fdf565b90506000610cdb87866110ff565b9050600085848484604051602001610cf694939291906121b2565b6040516020818303038152906040529050610d118b8261121f565b9a508980610d1e90611bc2565b9a50505050505b50505b508080610d3490611bc2565b915050610c1a565b505b508080610d4a90611bc2565b915050610be0565b5060008167ffffffffffffffff811115610d6f57610d6e611601565b5b604051908082528060200260200182016040528015610da257816020015b6060815260200190600190039081610d8d5790505b50905060005b82811015610dfc57838181518110610dc357610dc2611b64565b5b6020026020010151828281518110610dde57610ddd611b64565b5b60200260200101819052508080610df490611bc2565b915050610da8565b506000610e0884611303565b905080945050505050949350505050565b600260205282600052604060002060205281600052604060002081805160208101820180518482526020830160208501208183528095505050505050600092509250509054906101000a900460ff1681565b6000600360008481526020019081526020016000206000838152602001908152602001600020905060005b8180549050811015610f2157600160008581526020019081526020016000206000848152602001908152602001600020828281548110610ed957610ed8611b64565b5b90600052602060002001604051610ef0919061229c565b908152602001604051809103902060006101000a81549060ff02191690558080610f1990611bc2565b915050610e96565b506000600460008581526020019081526020016000206000848152602001908152602001600020905060005b8180549050811015610fd857600260008681526020019081526020016000206000858152602001908152602001600020828281548110610f9057610f8f611b64565b5b90600052602060002001604051610fa7919061229c565b908152602001604051809103902060006101000a81549060ff02191690558080610fd090611bc2565b915050610f4d565b5050505050565b60606000600360008581526020019081526020016000206000848152602001908152602001600020905060006040518060400160405280600181526020017f5b00000000000000000000000000000000000000000000000000000000000000815250905060005b82805490508110156110d157600081111561107e578160405160200161106c91906122b3565b60405160208183030381529060405291505b8183828154811061109257611091611b64565b5b906000526020600020016040516020016110ad9291906122d5565b604051602081830303815290604052915080806110c990611bc2565b915050611046565b50806040516020016110e39190612345565b6040516020818303038152906040529050809250505092915050565b60606000600460008581526020019081526020016000206000848152602001908152602001600020905060006040518060400160405280600181526020017f5b00000000000000000000000000000000000000000000000000000000000000815250905060005b82805490508110156111f157600081111561119e578160405160200161118c91906122b3565b60405160208183030381529060405291505b818382815481106111b2576111b1611b64565b5b906000526020600020016040516020016111cd9291906122d5565b604051602081830303815290604052915080806111e990611bc2565b915050611166565b50806040516020016112039190612345565b6040516020818303038152906040529050809250505092915050565b60606000600184516112319190612111565b67ffffffffffffffff81111561124a57611249611601565b5b60405190808252806020026020018201604052801561127d57816020015b60608152602001906001900390816112685790505b50905060005b84518110156112d85784818151811061129f5761129e611b64565b5b60200260200101518282815181106112ba576112b9611b64565b5b602002602001018190525080806112d090611bc2565b915050611283565b5082818551815181106112ee576112ed611b64565b5b60200260200101819052508091505092915050565b60606000805b835181101561134e5783818151811061132557611324611b64565b5b602002602001015151826113399190612111565b9150808061134690611bc2565b915050611309565b5060008167ffffffffffffffff81111561136b5761136a611601565b5b6040519080825280601f01601f19166020018201604052801561139d5781602001600182028036833780820191505090505b5090506000805b85518110156114745760008682815181106113c2576113c1611b64565b5b6020026020010151905060008151905060005b8181101561145e578281815181106113f0576113ef611b64565b5b602001015160f81c60f81b86868151811061140e5761140d611b64565b5b60200101907effffffffffffffffffffffffffffffffffffffffffffffffffffffffffffff1916908160001a905350848061144890611bc2565b955050808061145690611bc2565b9150506113d5565b505050808061146c90611bc2565b9150506113a4565b50819350505050919050565b6000604051905090565b600080fd5b600080fd5b6000819050919050565b6114a781611494565b81146114b257600080fd5b50565b6000813590506114c48161149e565b92915050565b600080fd5b600080fd5b600080fd5b60008083601f8401126114ef576114ee6114ca565b5b8235905067ffffffffffffffff81111561150c5761150b6114cf565b5b602083019150836020820283011115611528576115276114d4565b5b9250929050565b600080600080600080600060a0888a03121561154e5761154d61148a565b5b600061155c8a828b016114b5565b975050602061156d8a828b016114b5565b965050604061157e8a828b016114b5565b955050606088013567ffffffffffffffff81111561159f5761159e61148f565b5b6115ab8a828b016114d9565b9450945050608088013567ffffffffffffffff8111156115ce576115cd61148f565b5b6115da8a828b016114d9565b925092505092959891949750929550565b600080fd5b6000601f19601f8301169050919050565b7f4e487b7100000000000000000000000000000000000000000000000000000000600052604160045260246000fd5b611639826115f0565b810181811067ffffffffffffffff8211171561165857611657611601565b5b80604052505050565b600061166b611480565b90506116778282611630565b919050565b600067ffffffffffffffff82111561169757611696611601565b5b6116a0826115f0565b9050602081019050919050565b82818337600083830152505050565b60006116cf6116ca8461167c565b611661565b9050828152602081018484840111156116eb576116ea6115eb565b5b6116f68482856116ad565b509392505050565b600082601f830112611713576117126114ca565b5b81356117238482602086016116bc565b91505092915050565b6000806000606084860312156117455761174461148a565b5b6000611753868287016114b5565b9350506020611764868287016114b5565b925050604084013567ffffffffffffffff8111156117855761178461148f565b5b611791868287016116fe565b9150509250925092565b60008115159050919050565b6117b08161179b565b82525050565b60006020820190506117cb60008301846117a7565b92915050565b600080604083850312156117e8576117e761148a565b5b60006117f6858286016114b5565b9250506020611807858286016114b5565b9150509250929050565b61181a81611494565b82525050565b60006060820190506118356000830186611811565b6118426020830185611811565b61184f6040830184611811565b949350505050565b6000819050919050565b61186a81611857565b811461187557600080fd5b50565b60008135905061188781611861565b92915050565b600080600080600080608087890312156118aa576118a961148a565b5b60006118b889828a016114b5565b96505060206118c989828a01611878565b955050604087013567ffffffffffffffff8111156118ea576118e961148f565b5b6118f689828a016114d9565b9450945050606087013567ffffffffffffffff8111156119195761191861148f565b5b61192589828a016114d9565b92509250509295509295509295565b600081519050919050565b600082825260208201905092915050565b6000819050602082019050919050565b61196981611494565b82525050565b600061197b8383611960565b60208301905092915050565b6000602082019050919050565b600061199f82611934565b6119a9818561193f565b93506119b483611950565b8060005b838110156119e55781516119cc888261196f565b97506119d783611987565b9250506001810190506119b8565b5085935050505092915050565b60006020820190508181036000830152611a0c8184611994565b905092915050565b600060208284031215611a2a57611a2961148a565b5b6000611a38848285016114b5565b91505092915050565b6000602082019050611a566000830184611811565b92915050565b60008060008060808587031215611a7657611a7561148a565b5b6000611a84878288016114b5565b9450506020611a9587828801611878565b9350506040611aa687828801611878565b9250506060611ab787828801611878565b91505092959194509250565b600081519050919050565b600082825260208201905092915050565b60005b83811015611afd578082015181840152602081019050611ae2565b60008484015250505050565b6000611b1482611ac3565b611b1e8185611ace565b9350611b2e818560208601611adf565b611b37816115f0565b840191505092915050565b60006020820190508181036000830152611b5c8184611b09565b905092915050565b7f4e487b7100000000000000000000000000000000000000000000000000000000600052603260045260246000fd5b7f4e487b7100000000000000000000000000000000000000000000000000000000600052601160045260246000fd5b6000611bcd82611494565b91507fffffffffffffffffffffffffffffffffffffffffffffffffffffffffffffffff8203611bff57611bfe611b93565b5b600182019050919050565b600080fd5b600080fd5b600080fd5b60008083356001602003843603038112611c3657611c35611c0a565b5b80840192508235915067ffffffffffffffff821115611c5857611c57611c0f565b5b602083019250600182023603831315611c7457611c73611c14565b5b509250929050565b600081905092915050565b6000611c9282611ac3565b611c9c8185611c7c565b9350611cac818560208601611adf565b80840191505092915050565b6000611cc48284611c87565b915081905092915050565b7f4e487b7100000000000000000000000000000000000000000000000000000000600052602260045260246000fd5b60006002820490506001821680611d1657607f821691505b602082108103611d2957611d28611ccf565b5b50919050565b60008190508160005260206000209050919050565b60006020601f8301049050919050565b600082821b905092915050565b600060088302611d917fffffffffffffffffffffffffffffffffffffffffffffffffffffffffffffffff82611d54565b611d9b8683611d54565b95508019841693508086168417925050509392505050565b6000819050919050565b6000611dd8611dd3611dce84611494565b611db3565b611494565b9050919050565b6000819050919050565b611df283611dbd565b611e06611dfe82611ddf565b848454611d61565b825550505050565b600090565b611e1b611e0e565b611e26818484611de9565b505050565b5b81811015611e4a57611e3f600082611e13565b600181019050611e2c565b5050565b601f821115611e8f57611e6081611d2f565b611e6984611d44565b81016020851015611e78578190505b611e8c611e8485611d44565b830182611e2b565b50505b505050565b600082821c905092915050565b6000611eb260001984600802611e94565b1980831691505092915050565b6000611ecb8383611ea1565b9150826002028217905092915050565b611ee482611ac3565b67ffffffffffffffff811115611efd57611efc611601565b5b611f078254611cfe565b611f12828285611e4e565b600060209050601f831160018114611f455760008415611f33578287015190505b611f3d8582611ebf565b865550611fa5565b601f198416611f5386611d2f565b60005b82811015611f7b57848901518255600182019150602085019450602081019050611f56565b86831015611f985784890151611f94601f891682611ea1565b8355505b6001600288020188555050505b505050505050565b7f496e76616c6964205f656e6454696d6500000000000000000000000000000000600082015250565b6000611fe3601083611ace565b9150611fee82611fad565b602082019050919050565b6000602082019050818103600083015261201281611fd6565b9050919050565b600081905092915050565b60006120308385612019565b935061203d8385846116ad565b82840190509392505050565b6000612056828486612024565b91508190509392505050565b60008190508160005260206000209050919050565b6000815461208481611cfe565b61208e8186612019565b945060018216600081146120a957600181146120be576120f1565b60ff19831686528115158202860193506120f1565b6120c785612062565b60005b838110156120e9578154818901526001820191506020810190506120ca565b838801955050505b50505092915050565b60006121068284612077565b915081905092915050565b600061211c82611494565b915061212783611494565b925082820190508082111561213f5761213e611b93565b5b92915050565b6000819050919050565b61216061215b82611494565b612145565b82525050565b7f2c00000000000000000000000000000000000000000000000000000000000000600082015250565b600061219c600183611c7c565b91506121a782612166565b600182019050919050565b60006121be828761214f565b6020820191506121cd8261218f565b91506121d9828661214f565b6020820191506121e88261218f565b91506121f48285611c87565b91506121ff8261218f565b915061220b8284611c87565b915081905095945050505050565b6000815461222681611cfe565b6122308186611c7c565b9450600182166000811461224b576001811461226057612293565b60ff1983168652811515820286019350612293565b61226985611d2f565b60005b8381101561228b5781548189015260018201915060208101905061226c565b838801955050505b50505092915050565b60006122a88284612219565b915081905092915050565b60006122bf8284611c87565b91506122ca8261218f565b915081905092915050565b60006122e18285611c87565b91506122ed8284612219565b91508190509392505050565b7f5d00000000000000000000000000000000000000000000000000000000000000600082015250565b600061232f600183611c7c565b915061233a826122f9565b600182019050919050565b60006123518284611c87565b915061235c82612322565b91508190509291505056fea26469706673582212207885b1c75aa898d669d3063555fb1adabae6c2fc3e1d1a8ef329b117e546feb764736f6c63430008130033","opcodes":"PUSH1 0x80 PUSH1 0x40 MSTORE CALLVALUE DUP1 ISZERO PUSH2 0x10 JUMPI PUSH1 0x0 DUP1 REVERT JUMPDEST POP PUSH2 0x239D DUP1 PUSH2 0x20 PUSH1 0x0 CODECOPY PUSH1 0x0 RETURN INVALID PUSH1 0x80 PUSH1 0x40 MSTORE CALLVALUE DUP1 ISZERO PUSH2 0x10 JUMPI PUSH1 0x0 DUP1 REVERT JUMPDEST POP PUSH1 0x4 CALLDATASIZE LT PUSH2 0x93 JUMPI PUSH1 0x0 CALLDATALOAD PUSH1 0xE0 SHR DUP1 PUSH4 0x76F8487F GT PUSH2 0x66 JUMPI DUP1 PUSH4 0x76F8487F EQ PUSH2 0x132 JUMPI DUP1 PUSH4 0x7FB8998F EQ PUSH2 0x162 JUMPI DUP1 PUSH4 0xDF4F2A7A EQ PUSH2 0x192 JUMPI DUP1 PUSH4 0xDF6BD4BA EQ PUSH2 0x1C2 JUMPI DUP1 PUSH4 0xFCF03BE0 EQ PUSH2 0x1F2 JUMPI PUSH2 0x93 JUMP JUMPDEST DUP1 PUSH4 0x127F9ECB EQ PUSH2 0x98 JUMPI DUP1 PUSH4 0x21737237 EQ PUSH2 0xB4 JUMPI DUP1 PUSH4 0x302C8EF7 EQ PUSH2 0xD0 JUMPI DUP1 PUSH4 0x49633DC7 EQ PUSH2 0x100 JUMPI JUMPDEST PUSH1 0x0 DUP1 REVERT JUMPDEST PUSH2 0xB2 PUSH1 0x4 DUP1 CALLDATASIZE SUB DUP2 ADD SWAP1 PUSH2 0xAD SWAP2 SWAP1 PUSH2 0x152F JUMP JUMPDEST PUSH2 0x222 JUMP JUMPDEST STOP JUMPDEST PUSH2 0xCE PUSH1 0x4 DUP1 CALLDATASIZE SUB DUP2 ADD SWAP1 PUSH2 0xC9 SWAP2 SWAP1 PUSH2 0x152F JUMP JUMPDEST PUSH2 0x23A JUMP JUMPDEST STOP JUMPDEST PUSH2 0xEA PUSH1 0x4 DUP1 CALLDATASIZE SUB DUP2 ADD SWAP1 PUSH2 0xE5 SWAP2 SWAP1 PUSH2 0x172C JUMP JUMPDEST PUSH2 0x620 JUMP JUMPDEST PUSH1 0x40 MLOAD PUSH2 0xF7 SWAP2 SWAP1 PUSH2 0x17B6 JUMP JUMPDEST PUSH1 0x40 MLOAD DUP1 SWAP2 SUB SWAP1 RETURN JUMPDEST PUSH2 0x11A PUSH1 0x4 DUP1 CALLDATASIZE SUB DUP2 ADD SWAP1 PUSH2 0x115 SWAP2 SWAP1 PUSH2 0x17D1 JUMP JUMPDEST PUSH2 0x672 JUMP JUMPDEST PUSH1 0x40 MLOAD PUSH2 0x129 SWAP4 SWAP3 SWAP2 SWAP1 PUSH2 0x1820 JUMP JUMPDEST PUSH1 0x40 MLOAD DUP1 SWAP2 SUB SWAP1 RETURN JUMPDEST PUSH2 0x14C PUSH1 0x4 DUP1 CALLDATASIZE SUB DUP2 ADD SWAP1 PUSH2 0x147 SWAP2 SWAP1 PUSH2 0x188D JUMP JUMPDEST PUSH2 0x6A9 JUMP JUMPDEST PUSH1 0x40 MLOAD PUSH2 0x159 SWAP2 SWAP1 PUSH2 0x19F2 JUMP JUMPDEST PUSH1 0x40 MLOAD DUP1 SWAP2 SUB SWAP1 RETURN JUMPDEST PUSH2 0x17C PUSH1 0x4 DUP1 CALLDATASIZE SUB DUP2 ADD SWAP1 PUSH2 0x177 SWAP2 SWAP1 PUSH2 0x1A14 JUMP JUMPDEST PUSH2 0xB91 JUMP JUMPDEST PUSH1 0x40 MLOAD PUSH2 0x189 SWAP2 SWAP1 PUSH2 0x1A41 JUMP JUMPDEST PUSH1 0x40 MLOAD DUP1 SWAP2 SUB SWAP1 RETURN JUMPDEST PUSH2 0x1AC PUSH1 0x4 DUP1 CALLDATASIZE SUB DUP2 ADD SWAP1 PUSH2 0x1A7 SWAP2 SWAP1 PUSH2 0x1A14 JUMP JUMPDEST PUSH2 0xBB5 JUMP JUMPDEST PUSH1 0x40 MLOAD PUSH2 0x1B9 SWAP2 SWAP1 PUSH2 0x1A41 JUMP JUMPDEST PUSH1 0x40 MLOAD DUP1 SWAP2 SUB SWAP1 RETURN JUMPDEST PUSH2 0x1DC PUSH1 0x4 DUP1 CALLDATASIZE SUB DUP2 ADD SWAP1 PUSH2 0x1D7 SWAP2 SWAP1 PUSH2 0x1A5C JUMP JUMPDEST PUSH2 0xBD9 JUMP JUMPDEST PUSH1 0x40 MLOAD PUSH2 0x1E9 SWAP2 SWAP1 PUSH2 0x1B42 JUMP JUMPDEST PUSH1 0x40 MLOAD DUP1 SWAP2 SUB SWAP1 RETURN JUMPDEST PUSH2 0x20C PUSH1 0x4 DUP1 CALLDATASIZE SUB DUP2 ADD SWAP1 PUSH2 0x207 SWAP2 SWAP1 PUSH2 0x172C JUMP JUMPDEST PUSH2 0xE19 JUMP JUMPDEST PUSH1 0x40 MLOAD PUSH2 0x219 SWAP2 SWAP1 PUSH2 0x17B6 JUMP JUMPDEST PUSH1 0x40 MLOAD DUP1 SWAP2 SUB SWAP1 RETURN JUMPDEST PUSH2 0x231 DUP8 DUP8 DUP8 DUP8 DUP8 DUP8 DUP8 PUSH2 0x23A JUMP JUMPDEST POP POP POP POP POP POP POP JUMP JUMPDEST PUSH1 0x0 DUP1 PUSH1 0x0 DUP10 DUP2 MSTORE PUSH1 0x20 ADD SWAP1 DUP2 MSTORE PUSH1 0x20 ADD PUSH1 0x0 KECCAK256 PUSH1 0x0 DUP9 DUP2 MSTORE PUSH1 0x20 ADD SWAP1 DUP2 MSTORE PUSH1 0x20 ADD PUSH1 0x0 KECCAK256 SWAP1 POP DUP1 PUSH1 0x2 ADD SLOAD DUP7 GT ISZERO PUSH2 0x616 JUMPI DUP8 DUP2 PUSH1 0x0 ADD DUP2 SWAP1 SSTORE POP DUP7 DUP2 PUSH1 0x1 ADD DUP2 SWAP1 SSTORE POP DUP6 DUP2 PUSH1 0x2 ADD DUP2 SWAP1 SSTORE POP PUSH2 0x292 DUP9 DUP9 PUSH2 0xE6B JUMP JUMPDEST PUSH1 0x0 DUP1 JUMPDEST PUSH1 0x5 DUP1 SLOAD SWAP1 POP DUP2 LT ISZERO PUSH2 0x2E4 JUMPI DUP10 PUSH1 0x5 DUP3 DUP2 SLOAD DUP2 LT PUSH2 0x2B8 JUMPI PUSH2 0x2B7 PUSH2 0x1B64 JUMP JUMPDEST JUMPDEST SWAP1 PUSH1 0x0 MSTORE PUSH1 0x20 PUSH1 0x0 KECCAK256 ADD SLOAD SUB PUSH2 0x2D1 JUMPI PUSH1 0x1 SWAP2 POP PUSH2 0x2E4 JUMP JUMPDEST DUP1 DUP1 PUSH2 0x2DC SWAP1 PUSH2 0x1BC2 JUMP JUMPDEST SWAP2 POP POP PUSH2 0x296 JUMP JUMPDEST POP DUP1 PUSH2 0x314 JUMPI PUSH1 0x5 DUP10 SWAP1 DUP1 PUSH1 0x1 DUP2 SLOAD ADD DUP1 DUP3 SSTORE DUP1 SWAP2 POP POP PUSH1 0x1 SWAP1 SUB SWAP1 PUSH1 0x0 MSTORE PUSH1 0x20 PUSH1 0x0 KECCAK256 ADD PUSH1 0x0 SWAP1 SWAP2 SWAP1 SWAP2 SWAP1 SWAP2 POP SSTORE JUMPDEST PUSH1 0x0 DUP1 JUMPDEST PUSH1 0x6 DUP1 SLOAD SWAP1 POP DUP2 LT ISZERO PUSH2 0x366 JUMPI DUP10 PUSH1 0x6 DUP3 DUP2 SLOAD DUP2 LT PUSH2 0x33A JUMPI PUSH2 0x339 PUSH2 0x1B64 JUMP JUMPDEST JUMPDEST SWAP1 PUSH1 0x0 MSTORE PUSH1 0x20 PUSH1 0x0 KECCAK256 ADD SLOAD SUB PUSH2 0x353 JUMPI PUSH1 0x1 SWAP2 POP PUSH2 0x366 JUMP JUMPDEST DUP1 DUP1 PUSH2 0x35E SWAP1 PUSH2 0x1BC2 JUMP JUMPDEST SWAP2 POP POP PUSH2 0x318 JUMP JUMPDEST POP DUP1 PUSH2 0x396 JUMPI PUSH1 0x6 DUP10 SWAP1 DUP1 PUSH1 0x1 DUP2 SLOAD ADD DUP1 DUP3 SSTORE DUP1 SWAP2 POP POP PUSH1 0x1 SWAP1 SUB SWAP1 PUSH1 0x0 MSTORE PUSH1 0x20 PUSH1 0x0 KECCAK256 ADD PUSH1 0x0 SWAP1 SWAP2 SWAP1 SWAP2 SWAP1 SWAP2 POP SSTORE JUMPDEST PUSH1 0x0 JUMPDEST DUP8 DUP8 SWAP1 POP DUP2 LT ISZERO PUSH2 0x4D3 JUMPI PUSH1 0x0 DUP9 DUP9 DUP4 DUP2 DUP2 LT PUSH2 0x3B9 JUMPI PUSH2 0x3B8 PUSH2 0x1B64 JUMP JUMPDEST JUMPDEST SWAP1 POP PUSH1 0x20 MUL DUP2 ADD SWAP1 PUSH2 0x3CB SWAP2 SWAP1 PUSH2 0x1C19 JUMP JUMPDEST DUP1 DUP1 PUSH1 0x1F ADD PUSH1 0x20 DUP1 SWAP2 DIV MUL PUSH1 0x20 ADD PUSH1 0x40 MLOAD SWAP1 DUP2 ADD PUSH1 0x40 MSTORE DUP1 SWAP4 SWAP3 SWAP2 SWAP1 DUP2 DUP2 MSTORE PUSH1 0x20 ADD DUP4 DUP4 DUP1 DUP3 DUP5 CALLDATACOPY PUSH1 0x0 DUP2 DUP5 ADD MSTORE PUSH1 0x1F NOT PUSH1 0x1F DUP3 ADD AND SWAP1 POP DUP1 DUP4 ADD SWAP3 POP POP POP POP POP POP POP SWAP1 POP PUSH1 0x1 DUP1 PUSH1 0x0 DUP15 DUP2 MSTORE PUSH1 0x20 ADD SWAP1 DUP2 MSTORE PUSH1 0x20 ADD PUSH1 0x0 KECCAK256 PUSH1 0x0 DUP14 DUP2 MSTORE PUSH1 0x20 ADD SWAP1 DUP2 MSTORE PUSH1 0x20 ADD PUSH1 0x0 KECCAK256 DUP3 PUSH1 0x40 MLOAD PUSH2 0x443 SWAP2 SWAP1 PUSH2 0x1CB8 JUMP JUMPDEST SWAP1 DUP2 MSTORE PUSH1 0x20 ADD PUSH1 0x40 MLOAD DUP1 SWAP2 SUB SWAP1 KECCAK256 PUSH1 0x0 PUSH2 0x100 EXP DUP2 SLOAD DUP2 PUSH1 0xFF MUL NOT AND SWAP1 DUP4 ISZERO ISZERO MUL OR SWAP1 SSTORE POP PUSH1 0x3 PUSH1 0x0 DUP14 DUP2 MSTORE PUSH1 0x20 ADD SWAP1 DUP2 MSTORE PUSH1 0x20 ADD PUSH1 0x0 KECCAK256 PUSH1 0x0 DUP13 DUP2 MSTORE PUSH1 0x20 ADD SWAP1 DUP2 MSTORE PUSH1 0x20 ADD PUSH1 0x0 KECCAK256 DUP2 SWAP1 DUP1 PUSH1 0x1 DUP2 SLOAD ADD DUP1 DUP3 SSTORE DUP1 SWAP2 POP POP PUSH1 0x1 SWAP1 SUB SWAP1 PUSH1 0x0 MSTORE PUSH1 0x20 PUSH1 0x0 KECCAK256 ADD PUSH1 0x0 SWAP1 SWAP2 SWAP1 SWAP2 SWAP1 SWAP2 POP SWAP1 DUP2 PUSH2 0x4BE SWAP2 SWAP1 PUSH2 0x1EDB JUMP JUMPDEST POP POP DUP1 DUP1 PUSH2 0x4CB SWAP1 PUSH2 0x1BC2 JUMP JUMPDEST SWAP2 POP POP PUSH2 0x399 JUMP JUMPDEST POP PUSH1 0x0 JUMPDEST DUP6 DUP6 SWAP1 POP DUP2 LT ISZERO PUSH2 0x612 JUMPI PUSH1 0x0 DUP7 DUP7 DUP4 DUP2 DUP2 LT PUSH2 0x4F7 JUMPI PUSH2 0x4F6 PUSH2 0x1B64 JUMP JUMPDEST JUMPDEST SWAP1 POP PUSH1 0x20 MUL DUP2 ADD SWAP1 PUSH2 0x509 SWAP2 SWAP1 PUSH2 0x1C19 JUMP JUMPDEST DUP1 DUP1 PUSH1 0x1F ADD PUSH1 0x20 DUP1 SWAP2 DIV MUL PUSH1 0x20 ADD PUSH1 0x40 MLOAD SWAP1 DUP2 ADD PUSH1 0x40 MSTORE DUP1 SWAP4 SWAP3 SWAP2 SWAP1 DUP2 DUP2 MSTORE PUSH1 0x20 ADD DUP4 DUP4 DUP1 DUP3 DUP5 CALLDATACOPY PUSH1 0x0 DUP2 DUP5 ADD MSTORE PUSH1 0x1F NOT PUSH1 0x1F DUP3 ADD AND SWAP1 POP DUP1 DUP4 ADD SWAP3 POP POP POP POP POP POP POP SWAP1 POP PUSH1 0x1 PUSH1 0x2 PUSH1 0x0 DUP15 DUP2 MSTORE PUSH1 0x20 ADD SWAP1 DUP2 MSTORE PUSH1 0x20 ADD PUSH1 0x0 KECCAK256 PUSH1 0x0 DUP14 DUP2 MSTORE PUSH1 0x20 ADD SWAP1 DUP2 MSTORE PUSH1 0x20 ADD PUSH1 0x0 KECCAK256 DUP3 PUSH1 0x40 MLOAD PUSH2 0x582 SWAP2 SWAP1 PUSH2 0x1CB8 JUMP JUMPDEST SWAP1 DUP2 MSTORE PUSH1 0x20 ADD PUSH1 0x40 MLOAD DUP1 SWAP2 SUB SWAP1 KECCAK256 PUSH1 0x0 PUSH2 0x100 EXP DUP2 SLOAD DUP2 PUSH1 0xFF MUL NOT AND SWAP1 DUP4 ISZERO ISZERO MUL OR SWAP1 SSTORE POP PUSH1 0x4 PUSH1 0x0 DUP14 DUP2 MSTORE PUSH1 0x20 ADD SWAP1 DUP2 MSTORE PUSH1 0x20 ADD PUSH1 0x0 KECCAK256 PUSH1 0x0 DUP13 DUP2 MSTORE PUSH1 0x20 ADD SWAP1 DUP2 MSTORE PUSH1 0x20 ADD PUSH1 0x0 KECCAK256 DUP2 SWAP1 DUP1 PUSH1 0x1 DUP2 SLOAD ADD DUP1 DUP3 SSTORE DUP1 SWAP2 POP POP PUSH1 0x1 SWAP1 SUB SWAP1 PUSH1 0x0 MSTORE PUSH1 0x20 PUSH1 0x0 KECCAK256 ADD PUSH1 0x0 SWAP1 SWAP2 SWAP1 SWAP2 SWAP1 SWAP2 POP SWAP1 DUP2 PUSH2 0x5FD SWAP2 SWAP1 PUSH2 0x1EDB JUMP JUMPDEST POP POP DUP1 DUP1 PUSH2 0x60A SWAP1 PUSH2 0x1BC2 JUMP JUMPDEST SWAP2 POP POP PUSH2 0x4D7 JUMP JUMPDEST POP POP POP JUMPDEST POP POP POP POP POP POP POP POP JUMP JUMPDEST PUSH1 0x1 PUSH1 0x20 MSTORE DUP3 PUSH1 0x0 MSTORE PUSH1 0x40 PUSH1 0x0 KECCAK256 PUSH1 0x20 MSTORE DUP2 PUSH1 0x0 MSTORE PUSH1 0x40 PUSH1 0x0 KECCAK256 DUP2 DUP1 MLOAD PUSH1 0x20 DUP2 ADD DUP3 ADD DUP1 MLOAD DUP5 DUP3 MSTORE PUSH1 0x20 DUP4 ADD PUSH1 0x20 DUP6 ADD KECCAK256 DUP2 DUP4 MSTORE DUP1 SWAP6 POP POP POP POP POP POP PUSH1 0x0 SWAP3 POP SWAP3 POP POP SWAP1 SLOAD SWAP1 PUSH2 0x100 EXP SWAP1 DIV PUSH1 0xFF AND DUP2 JUMP JUMPDEST PUSH1 0x0 PUSH1 0x20 MSTORE DUP2 PUSH1 0x0 MSTORE PUSH1 0x40 PUSH1 0x0 KECCAK256 PUSH1 0x20 MSTORE DUP1 PUSH1 0x0 MSTORE PUSH1 0x40 PUSH1 0x0 KECCAK256 PUSH1 0x0 SWAP2 POP SWAP2 POP POP DUP1 PUSH1 0x0 ADD SLOAD SWAP1 DUP1 PUSH1 0x1 ADD SLOAD SWAP1 DUP1 PUSH1 0x2 ADD SLOAD SWAP1 POP DUP4 JUMP JUMPDEST PUSH1 0x60 DUP1 PUSH1 0x0 PUSH32 0xFFFFFFFFFFFFFFFFFFFFFFFFFFFFFFFFFFFFFFFFFFFFFFFFFFFFFFFFFFFFFFFF DUP9 SUB PUSH2 0x6FD JUMPI PUSH32 0xFFFFFFFFFFFFFFFFFFFFFFFFFFFFFFFFFFFFFFFFFFFFFFFFFFFFFFFFFFFFFFFF SWAP1 POP PUSH2 0x745 JUMP JUMPDEST PUSH1 0x0 DUP9 SLT ISZERO PUSH2 0x741 JUMPI PUSH1 0x40 MLOAD PUSH32 0x8C379A000000000000000000000000000000000000000000000000000000000 DUP2 MSTORE PUSH1 0x4 ADD PUSH2 0x738 SWAP1 PUSH2 0x1FF9 JUMP JUMPDEST PUSH1 0x40 MLOAD DUP1 SWAP2 SUB SWAP1 REVERT JUMPDEST DUP8 SWAP1 POP JUMPDEST PUSH1 0x0 JUMPDEST PUSH1 0x5 DUP1 SLOAD SWAP1 POP DUP2 LT ISZERO PUSH2 0xB81 JUMPI PUSH1 0x0 PUSH1 0x5 DUP3 DUP2 SLOAD DUP2 LT PUSH2 0x76B JUMPI PUSH2 0x76A PUSH2 0x1B64 JUMP JUMPDEST JUMPDEST SWAP1 PUSH1 0x0 MSTORE PUSH1 0x20 PUSH1 0x0 KECCAK256 ADD SLOAD SWAP1 POP PUSH1 0x0 JUMPDEST PUSH1 0x6 DUP1 SLOAD SWAP1 POP DUP2 LT ISZERO PUSH2 0xB6C JUMPI PUSH1 0x0 DUP13 SWAP1 POP PUSH1 0x0 DUP1 PUSH1 0x0 DUP6 DUP2 MSTORE PUSH1 0x20 ADD SWAP1 DUP2 MSTORE PUSH1 0x20 ADD PUSH1 0x0 KECCAK256 PUSH1 0x0 DUP4 DUP2 MSTORE PUSH1 0x20 ADD SWAP1 DUP2 MSTORE PUSH1 0x20 ADD PUSH1 0x0 KECCAK256 SWAP1 POP DUP6 DUP2 PUSH1 0x2 ADD SLOAD GT PUSH2 0xB57 JUMPI PUSH1 0x0 PUSH1 0x1 SWAP1 POP PUSH1 0x0 JUMPDEST DUP14 DUP14 SWAP1 POP DUP2 LT ISZERO PUSH2 0x8DB JUMPI PUSH1 0x0 DUP1 JUMPDEST PUSH1 0x3 PUSH1 0x0 DUP10 DUP2 MSTORE PUSH1 0x20 ADD SWAP1 DUP2 MSTORE PUSH1 0x20 ADD PUSH1 0x0 KECCAK256 PUSH1 0x0 DUP8 DUP2 MSTORE PUSH1 0x20 ADD SWAP1 DUP2 MSTORE PUSH1 0x20 ADD PUSH1 0x0 KECCAK256 DUP1 SLOAD SWAP1 POP DUP2 LT ISZERO PUSH2 0x8B7 JUMPI DUP16 DUP16 DUP5 DUP2 DUP2 LT PUSH2 0x819 JUMPI PUSH2 0x818 PUSH2 0x1B64 JUMP JUMPDEST JUMPDEST SWAP1 POP PUSH1 0x20 MUL DUP2 ADD SWAP1 PUSH2 0x82B SWAP2 SWAP1 PUSH2 0x1C19 JUMP JUMPDEST PUSH1 0x40 MLOAD PUSH2 0x839 SWAP3 SWAP2 SWAP1 PUSH2 0x2049 JUMP JUMPDEST PUSH1 0x40 MLOAD DUP1 SWAP2 SUB SWAP1 KECCAK256 PUSH1 0x3 PUSH1 0x0 DUP11 DUP2 MSTORE PUSH1 0x20 ADD SWAP1 DUP2 MSTORE PUSH1 0x20 ADD PUSH1 0x0 KECCAK256 PUSH1 0x0 DUP9 DUP2 MSTORE PUSH1 0x20 ADD SWAP1 DUP2 MSTORE PUSH1 0x20 ADD PUSH1 0x0 KECCAK256 DUP3 DUP2 SLOAD DUP2 LT PUSH2 0x877 JUMPI PUSH2 0x876 PUSH2 0x1B64 JUMP JUMPDEST JUMPDEST SWAP1 PUSH1 0x0 MSTORE PUSH1 0x20 PUSH1 0x0 KECCAK256 ADD PUSH1 0x40 MLOAD PUSH2 0x88E SWAP2 SWAP1 PUSH2 0x20FA JUMP JUMPDEST PUSH1 0x40 MLOAD DUP1 SWAP2 SUB SWAP1 KECCAK256 SUB PUSH2 0x8A4 JUMPI PUSH1 0x1 SWAP2 POP PUSH2 0x8B7 JUMP JUMPDEST DUP1 DUP1 PUSH2 0x8AF SWAP1 PUSH2 0x1BC2 JUMP JUMPDEST SWAP2 POP POP PUSH2 0x7D7 JUMP JUMPDEST POP DUP1 PUSH2 0x8C7 JUMPI PUSH1 0x0 SWAP3 POP POP PUSH2 0x8DB JUMP JUMPDEST POP DUP1 DUP1 PUSH2 0x8D3 SWAP1 PUSH2 0x1BC2 JUMP JUMPDEST SWAP2 POP POP PUSH2 0x7C8 JUMP JUMPDEST POP PUSH1 0x0 JUMPDEST DUP12 DUP12 SWAP1 POP DUP2 LT ISZERO PUSH2 0x9F2 JUMPI PUSH1 0x0 DUP1 JUMPDEST PUSH1 0x4 PUSH1 0x0 DUP10 DUP2 MSTORE PUSH1 0x20 ADD SWAP1 DUP2 MSTORE PUSH1 0x20 ADD PUSH1 0x0 KECCAK256 PUSH1 0x0 DUP8 DUP2 MSTORE PUSH1 0x20 ADD SWAP1 DUP2 MSTORE PUSH1 0x20 ADD PUSH1 0x0 KECCAK256 DUP1 SLOAD SWAP1 POP DUP2 LT ISZERO PUSH2 0x9CE JUMPI DUP14 DUP14 DUP5 DUP2 DUP2 LT PUSH2 0x930 JUMPI PUSH2 0x92F PUSH2 0x1B64 JUMP JUMPDEST JUMPDEST SWAP1 POP PUSH1 0x20 MUL DUP2 ADD SWAP1 PUSH2 0x942 SWAP2 SWAP1 PUSH2 0x1C19 JUMP JUMPDEST PUSH1 0x40 MLOAD PUSH2 0x950 SWAP3 SWAP2 SWAP1 PUSH2 0x2049 JUMP JUMPDEST PUSH1 0x40 MLOAD DUP1 SWAP2 SUB SWAP1 KECCAK256 PUSH1 0x4 PUSH1 0x0 DUP11 DUP2 MSTORE PUSH1 0x20 ADD SWAP1 DUP2 MSTORE PUSH1 0x20 ADD PUSH1 0x0 KECCAK256 PUSH1 0x0 DUP9 DUP2 MSTORE PUSH1 0x20 ADD SWAP1 DUP2 MSTORE PUSH1 0x20 ADD PUSH1 0x0 KECCAK256 DUP3 DUP2 SLOAD DUP2 LT PUSH2 0x98E JUMPI PUSH2 0x98D PUSH2 0x1B64 JUMP JUMPDEST JUMPDEST SWAP1 PUSH1 0x0 MSTORE PUSH1 0x20 PUSH1 0x0 KECCAK256 ADD PUSH1 0x40 MLOAD PUSH2 0x9A5 SWAP2 SWAP1 PUSH2 0x20FA JUMP JUMPDEST PUSH1 0x40 MLOAD DUP1 SWAP2 SUB SWAP1 KECCAK256 SUB PUSH2 0x9BB JUMPI PUSH1 0x1 SWAP2 POP PUSH2 0x9CE JUMP JUMPDEST DUP1 DUP1 PUSH2 0x9C6 SWAP1 PUSH2 0x1BC2 JUMP JUMPDEST SWAP2 POP POP PUSH2 0x8EE JUMP JUMPDEST POP DUP1 PUSH2 0x9DE JUMPI PUSH1 0x0 SWAP3 POP POP PUSH2 0x9F2 JUMP JUMPDEST POP DUP1 DUP1 PUSH2 0x9EA SWAP1 PUSH2 0x1BC2 JUMP JUMPDEST SWAP2 POP POP PUSH2 0x8DF JUMP JUMPDEST POP DUP1 ISZERO PUSH2 0xB55 JUMPI PUSH1 0x0 DUP9 MLOAD SUB PUSH2 0xA74 JUMPI PUSH1 0x1 PUSH8 0xFFFFFFFFFFFFFFFF DUP2 GT ISZERO PUSH2 0xA1D JUMPI PUSH2 0xA1C PUSH2 0x1601 JUMP JUMPDEST JUMPDEST PUSH1 0x40 MLOAD SWAP1 DUP1 DUP3 MSTORE DUP1 PUSH1 0x20 MUL PUSH1 0x20 ADD DUP3 ADD PUSH1 0x40 MSTORE DUP1 ISZERO PUSH2 0xA4B JUMPI DUP2 PUSH1 0x20 ADD PUSH1 0x20 DUP3 MUL DUP1 CALLDATASIZE DUP4 CALLDATACOPY DUP1 DUP3 ADD SWAP2 POP POP SWAP1 POP JUMPDEST POP SWAP8 POP DUP5 DUP9 PUSH1 0x0 DUP2 MLOAD DUP2 LT PUSH2 0xA63 JUMPI PUSH2 0xA62 PUSH2 0x1B64 JUMP JUMPDEST JUMPDEST PUSH1 0x20 MUL PUSH1 0x20 ADD ADD DUP2 DUP2 MSTORE POP POP PUSH2 0xB54 JUMP JUMPDEST PUSH1 0x0 PUSH1 0x1 DUP10 MLOAD PUSH2 0xA84 SWAP2 SWAP1 PUSH2 0x2111 JUMP JUMPDEST SWAP1 POP PUSH1 0x0 DUP2 PUSH8 0xFFFFFFFFFFFFFFFF DUP2 GT ISZERO PUSH2 0xAA2 JUMPI PUSH2 0xAA1 PUSH2 0x1601 JUMP JUMPDEST JUMPDEST PUSH1 0x40 MLOAD SWAP1 DUP1 DUP3 MSTORE DUP1 PUSH1 0x20 MUL PUSH1 0x20 ADD DUP3 ADD PUSH1 0x40 MSTORE DUP1 ISZERO PUSH2 0xAD0 JUMPI DUP2 PUSH1 0x20 ADD PUSH1 0x20 DUP3 MUL DUP1 CALLDATASIZE DUP4 CALLDATACOPY DUP1 DUP3 ADD SWAP2 POP POP SWAP1 POP JUMPDEST POP SWAP1 POP PUSH1 0x0 JUMPDEST DUP11 MLOAD DUP2 LT ISZERO PUSH2 0xB2C JUMPI DUP11 DUP2 DUP2 MLOAD DUP2 LT PUSH2 0xAF2 JUMPI PUSH2 0xAF1 PUSH2 0x1B64 JUMP JUMPDEST JUMPDEST PUSH1 0x20 MUL PUSH1 0x20 ADD ADD MLOAD DUP3 DUP3 DUP2 MLOAD DUP2 LT PUSH2 0xB0D JUMPI PUSH2 0xB0C PUSH2 0x1B64 JUMP JUMPDEST JUMPDEST PUSH1 0x20 MUL PUSH1 0x20 ADD ADD DUP2 DUP2 MSTORE POP POP DUP1 DUP1 PUSH2 0xB24 SWAP1 PUSH2 0x1BC2 JUMP JUMPDEST SWAP2 POP POP PUSH2 0xAD6 JUMP JUMPDEST POP DUP7 DUP2 DUP12 MLOAD DUP2 MLOAD DUP2 LT PUSH2 0xB42 JUMPI PUSH2 0xB41 PUSH2 0x1B64 JUMP JUMPDEST JUMPDEST PUSH1 0x20 MUL PUSH1 0x20 ADD ADD DUP2 DUP2 MSTORE POP POP DUP1 SWAP10 POP POP POP JUMPDEST JUMPDEST POP JUMPDEST POP POP DUP1 DUP1 PUSH2 0xB64 SWAP1 PUSH2 0x1BC2 JUMP JUMPDEST SWAP2 POP POP PUSH2 0x77B JUMP JUMPDEST POP POP DUP1 DUP1 PUSH2 0xB79 SWAP1 PUSH2 0x1BC2 JUMP JUMPDEST SWAP2 POP POP PUSH2 0x748 JUMP JUMPDEST POP DUP2 SWAP3 POP POP POP SWAP7 SWAP6 POP POP POP POP POP POP JUMP JUMPDEST PUSH1 0x5 DUP2 DUP2 SLOAD DUP2 LT PUSH2 0xBA1 JUMPI PUSH1 0x0 DUP1 REVERT JUMPDEST SWAP1 PUSH1 0x0 MSTORE PUSH1 0x20 PUSH1 0x0 KECCAK256 ADD PUSH1 0x0 SWAP2 POP SWAP1 POP SLOAD DUP2 JUMP JUMPDEST PUSH1 0x6 DUP2 DUP2 SLOAD DUP2 LT PUSH2 0xBC5 JUMPI PUSH1 0x0 DUP1 REVERT JUMPDEST SWAP1 PUSH1 0x0 MSTORE PUSH1 0x20 PUSH1 0x0 KECCAK256 ADD PUSH1 0x0 SWAP2 POP SWAP1 POP SLOAD DUP2 JUMP JUMPDEST PUSH1 0x60 DUP1 PUSH1 0x0 DUP1 JUMPDEST PUSH1 0x5 DUP1 SLOAD SWAP1 POP DUP2 LT ISZERO PUSH2 0xD52 JUMPI PUSH1 0x0 PUSH1 0x5 DUP3 DUP2 SLOAD DUP2 LT PUSH2 0xC03 JUMPI PUSH2 0xC02 PUSH2 0x1B64 JUMP JUMPDEST JUMPDEST SWAP1 PUSH1 0x0 MSTORE PUSH1 0x20 PUSH1 0x0 KECCAK256 ADD SLOAD SWAP1 POP DUP9 DUP2 SUB PUSH2 0xD3E JUMPI PUSH1 0x0 JUMPDEST PUSH1 0x6 DUP1 SLOAD SWAP1 POP DUP2 LT ISZERO PUSH2 0xD3C JUMPI PUSH1 0x0 PUSH1 0x6 DUP3 DUP2 SLOAD DUP2 LT PUSH2 0xC3D JUMPI PUSH2 0xC3C PUSH2 0x1B64 JUMP JUMPDEST JUMPDEST SWAP1 PUSH1 0x0 MSTORE PUSH1 0x20 PUSH1 0x0 KECCAK256 ADD SLOAD SWAP1 POP PUSH32 0xFFFFFFFFFFFFFFFFFFFFFFFFFFFFFFFFFFFFFFFFFFFFFFFFFFFFFFFFFFFFFFFF DUP11 EQ DUP1 PUSH2 0xC77 JUMPI POP DUP10 DUP2 EQ JUMPDEST ISZERO PUSH2 0xD28 JUMPI PUSH1 0x0 DUP1 PUSH1 0x0 DUP6 DUP2 MSTORE PUSH1 0x20 ADD SWAP1 DUP2 MSTORE PUSH1 0x20 ADD PUSH1 0x0 KECCAK256 PUSH1 0x0 DUP4 DUP2 MSTORE PUSH1 0x20 ADD SWAP1 DUP2 MSTORE PUSH1 0x20 ADD PUSH1 0x0 KECCAK256 SWAP1 POP PUSH1 0x0 DUP2 PUSH1 0x2 ADD SLOAD SWAP1 POP DUP11 DUP2 LT ISZERO DUP1 ISZERO PUSH2 0xCBC JUMPI POP DUP10 DUP2 GT ISZERO JUMPDEST ISZERO PUSH2 0xD25 JUMPI PUSH1 0x0 PUSH2 0xCCD DUP7 DUP6 PUSH2 0xFDF JUMP JUMPDEST SWAP1 POP PUSH1 0x0 PUSH2 0xCDB DUP8 DUP7 PUSH2 0x10FF JUMP JUMPDEST SWAP1 POP PUSH1 0x0 DUP6 DUP5 DUP5 DUP5 PUSH1 0x40 MLOAD PUSH1 0x20 ADD PUSH2 0xCF6 SWAP5 SWAP4 SWAP3 SWAP2 SWAP1 PUSH2 0x21B2 JUMP JUMPDEST PUSH1 0x40 MLOAD PUSH1 0x20 DUP2 DUP4 SUB SUB DUP2 MSTORE SWAP1 PUSH1 0x40 MSTORE SWAP1 POP PUSH2 0xD11 DUP12 DUP3 PUSH2 0x121F JUMP JUMPDEST SWAP11 POP DUP10 DUP1 PUSH2 0xD1E SWAP1 PUSH2 0x1BC2 JUMP JUMPDEST SWAP11 POP POP POP POP POP JUMPDEST POP POP JUMPDEST POP DUP1 DUP1 PUSH2 0xD34 SWAP1 PUSH2 0x1BC2 JUMP JUMPDEST SWAP2 POP POP PUSH2 0xC1A JUMP JUMPDEST POP JUMPDEST POP DUP1 DUP1 PUSH2 0xD4A SWAP1 PUSH2 0x1BC2 JUMP JUMPDEST SWAP2 POP POP PUSH2 0xBE0 JUMP JUMPDEST POP PUSH1 0x0 DUP2 PUSH8 0xFFFFFFFFFFFFFFFF DUP2 GT ISZERO PUSH2 0xD6F JUMPI PUSH2 0xD6E PUSH2 0x1601 JUMP JUMPDEST JUMPDEST PUSH1 0x40 MLOAD SWAP1 DUP1 DUP3 MSTORE DUP1 PUSH1 0x20 MUL PUSH1 0x20 ADD DUP3 ADD PUSH1 0x40 MSTORE DUP1 ISZERO PUSH2 0xDA2 JUMPI DUP2 PUSH1 0x20 ADD JUMPDEST PUSH1 0x60 DUP2 MSTORE PUSH1 0x20 ADD SWAP1 PUSH1 0x1 SWAP1 SUB SWAP1 DUP2 PUSH2 0xD8D JUMPI SWAP1 POP JUMPDEST POP SWAP1 POP PUSH1 0x0 JUMPDEST DUP3 DUP2 LT ISZERO PUSH2 0xDFC JUMPI DUP4 DUP2 DUP2 MLOAD DUP2 LT PUSH2 0xDC3 JUMPI PUSH2 0xDC2 PUSH2 0x1B64 JUMP JUMPDEST JUMPDEST PUSH1 0x20 MUL PUSH1 0x20 ADD ADD MLOAD DUP3 DUP3 DUP2 MLOAD DUP2 LT PUSH2 0xDDE JUMPI PUSH2 0xDDD PUSH2 0x1B64 JUMP JUMPDEST JUMPDEST PUSH1 0x20 MUL PUSH1 0x20 ADD ADD DUP2 SWAP1 MSTORE POP DUP1 DUP1 PUSH2 0xDF4 SWAP1 PUSH2 0x1BC2 JUMP JUMPDEST SWAP2 POP POP PUSH2 0xDA8 JUMP JUMPDEST POP PUSH1 0x0 PUSH2 0xE08 DUP5 PUSH2 0x1303 JUMP JUMPDEST SWAP1 POP DUP1 SWAP5 POP POP POP POP POP SWAP5 SWAP4 POP POP POP POP JUMP JUMPDEST PUSH1 0x2 PUSH1 0x20 MSTORE DUP3 PUSH1 0x0 MSTORE PUSH1 0x40 PUSH1 0x0 KECCAK256 PUSH1 0x20 MSTORE DUP2 PUSH1 0x0 MSTORE PUSH1 0x40 PUSH1 0x0 KECCAK256 DUP2 DUP1 MLOAD PUSH1 0x20 DUP2 ADD DUP3 ADD DUP1 MLOAD DUP5 DUP3 MSTORE PUSH1 0x20 DUP4 ADD PUSH1 0x20 DUP6 ADD KECCAK256 DUP2 DUP4 MSTORE DUP1 SWAP6 POP POP POP POP POP POP PUSH1 0x0 SWAP3 POP SWAP3 POP POP SWAP1 SLOAD SWAP1 PUSH2 0x100 EXP SWAP1 DIV PUSH1 0xFF AND DUP2 JUMP JUMPDEST PUSH1 0x0 PUSH1 0x3 PUSH1 0x0 DUP5 DUP2 MSTORE PUSH1 0x20 ADD SWAP1 DUP2 MSTORE PUSH1 0x20 ADD PUSH1 0x0 KECCAK256 PUSH1 0x0 DUP4 DUP2 MSTORE PUSH1 0x20 ADD SWAP1 DUP2 MSTORE PUSH1 0x20 ADD PUSH1 0x0 KECCAK256 SWAP1 POP PUSH1 0x0 JUMPDEST DUP2 DUP1 SLOAD SWAP1 POP DUP2 LT ISZERO PUSH2 0xF21 JUMPI PUSH1 0x1 PUSH1 0x0 DUP6 DUP2 MSTORE PUSH1 0x20 ADD SWAP1 DUP2 MSTORE PUSH1 0x20 ADD PUSH1 0x0 KECCAK256 PUSH1 0x0 DUP5 DUP2 MSTORE PUSH1 0x20 ADD SWAP1 DUP2 MSTORE PUSH1 0x20 ADD PUSH1 0x0 KECCAK256 DUP3 DUP3 DUP2 SLOAD DUP2 LT PUSH2 0xED9 JUMPI PUSH2 0xED8 PUSH2 0x1B64 JUMP JUMPDEST JUMPDEST SWAP1 PUSH1 0x0 MSTORE PUSH1 0x20 PUSH1 0x0 KECCAK256 ADD PUSH1 0x40 MLOAD PUSH2 0xEF0 SWAP2 SWAP1 PUSH2 0x229C JUMP JUMPDEST SWAP1 DUP2 MSTORE PUSH1 0x20 ADD PUSH1 0x40 MLOAD DUP1 SWAP2 SUB SWAP1 KECCAK256 PUSH1 0x0 PUSH2 0x100 EXP DUP2 SLOAD SWAP1 PUSH1 0xFF MUL NOT AND SWAP1 SSTORE DUP1 DUP1 PUSH2 0xF19 SWAP1 PUSH2 0x1BC2 JUMP JUMPDEST SWAP2 POP POP PUSH2 0xE96 JUMP JUMPDEST POP PUSH1 0x0 PUSH1 0x4 PUSH1 0x0 DUP6 DUP2 MSTORE PUSH1 0x20 ADD SWAP1 DUP2 MSTORE PUSH1 0x20 ADD PUSH1 0x0 KECCAK256 PUSH1 0x0 DUP5 DUP2 MSTORE PUSH1 0x20 ADD SWAP1 DUP2 MSTORE PUSH1 0x20 ADD PUSH1 0x0 KECCAK256 SWAP1 POP PUSH1 0x0 JUMPDEST DUP2 DUP1 SLOAD SWAP1 POP DUP2 LT ISZERO PUSH2 0xFD8 JUMPI PUSH1 0x2 PUSH1 0x0 DUP7 DUP2 MSTORE PUSH1 0x20 ADD SWAP1 DUP2 MSTORE PUSH1 0x20 ADD PUSH1 0x0 KECCAK256 PUSH1 0x0 DUP6 DUP2 MSTORE PUSH1 0x20 ADD SWAP1 DUP2 MSTORE PUSH1 0x20 ADD PUSH1 0x0 KECCAK256 DUP3 DUP3 DUP2 SLOAD DUP2 LT PUSH2 0xF90 JUMPI PUSH2 0xF8F PUSH2 0x1B64 JUMP JUMPDEST JUMPDEST SWAP1 PUSH1 0x0 MSTORE PUSH1 0x20 PUSH1 0x0 KECCAK256 ADD PUSH1 0x40 MLOAD PUSH2 0xFA7 SWAP2 SWAP1 PUSH2 0x229C JUMP JUMPDEST SWAP1 DUP2 MSTORE PUSH1 0x20 ADD PUSH1 0x40 MLOAD DUP1 SWAP2 SUB SWAP1 KECCAK256 PUSH1 0x0 PUSH2 0x100 EXP DUP2 SLOAD SWAP1 PUSH1 0xFF MUL NOT AND SWAP1 SSTORE DUP1 DUP1 PUSH2 0xFD0 SWAP1 PUSH2 0x1BC2 JUMP JUMPDEST SWAP2 POP POP PUSH2 0xF4D JUMP JUMPDEST POP POP POP POP POP JUMP JUMPDEST PUSH1 0x60 PUSH1 0x0 PUSH1 0x3 PUSH1 0x0 DUP6 DUP2 MSTORE PUSH1 0x20 ADD SWAP1 DUP2 MSTORE PUSH1 0x20 ADD PUSH1 0x0 KECCAK256 PUSH1 0x0 DUP5 DUP2 MSTORE PUSH1 0x20 ADD SWAP1 DUP2 MSTORE PUSH1 0x20 ADD PUSH1 0x0 KECCAK256 SWAP1 POP PUSH1 0x0 PUSH1 0x40 MLOAD DUP1 PUSH1 0x40 ADD PUSH1 0x40 MSTORE DUP1 PUSH1 0x1 DUP2 MSTORE PUSH1 0x20 ADD PUSH32 0x5B00000000000000000000000000000000000000000000000000000000000000 DUP2 MSTORE POP SWAP1 POP PUSH1 0x0 JUMPDEST DUP3 DUP1 SLOAD SWAP1 POP DUP2 LT ISZERO PUSH2 0x10D1 JUMPI PUSH1 0x0 DUP2 GT ISZERO PUSH2 0x107E JUMPI DUP2 PUSH1 0x40 MLOAD PUSH1 0x20 ADD PUSH2 0x106C SWAP2 SWAP1 PUSH2 0x22B3 JUMP JUMPDEST PUSH1 0x40 MLOAD PUSH1 0x20 DUP2 DUP4 SUB SUB DUP2 MSTORE SWAP1 PUSH1 0x40 MSTORE SWAP2 POP JUMPDEST DUP2 DUP4 DUP3 DUP2 SLOAD DUP2 LT PUSH2 0x1092 JUMPI PUSH2 0x1091 PUSH2 0x1B64 JUMP JUMPDEST JUMPDEST SWAP1 PUSH1 0x0 MSTORE PUSH1 0x20 PUSH1 0x0 KECCAK256 ADD PUSH1 0x40 MLOAD PUSH1 0x20 ADD PUSH2 0x10AD SWAP3 SWAP2 SWAP1 PUSH2 0x22D5 JUMP JUMPDEST PUSH1 0x40 MLOAD PUSH1 0x20 DUP2 DUP4 SUB SUB DUP2 MSTORE SWAP1 PUSH1 0x40 MSTORE SWAP2 POP DUP1 DUP1 PUSH2 0x10C9 SWAP1 PUSH2 0x1BC2 JUMP JUMPDEST SWAP2 POP POP PUSH2 0x1046 JUMP JUMPDEST POP DUP1 PUSH1 0x40 MLOAD PUSH1 0x20 ADD PUSH2 0x10E3 SWAP2 SWAP1 PUSH2 0x2345 JUMP JUMPDEST PUSH1 0x40 MLOAD PUSH1 0x20 DUP2 DUP4 SUB SUB DUP2 MSTORE SWAP1 PUSH1 0x40 MSTORE SWAP1 POP DUP1 SWAP3 POP POP POP SWAP3 SWAP2 POP POP JUMP JUMPDEST PUSH1 0x60 PUSH1 0x0 PUSH1 0x4 PUSH1 0x0 DUP6 DUP2 MSTORE PUSH1 0x20 ADD SWAP1 DUP2 MSTORE PUSH1 0x20 ADD PUSH1 0x0 KECCAK256 PUSH1 0x0 DUP5 DUP2 MSTORE PUSH1 0x20 ADD SWAP1 DUP2 MSTORE PUSH1 0x20 ADD PUSH1 0x0 KECCAK256 SWAP1 POP PUSH1 0x0 PUSH1 0x40 MLOAD DUP1 PUSH1 0x40 ADD PUSH1 0x40 MSTORE DUP1 PUSH1 0x1 DUP2 MSTORE PUSH1 0x20 ADD PUSH32 0x5B00000000000000000000000000000000000000000000000000000000000000 DUP2 MSTORE POP SWAP1 POP PUSH1 0x0 JUMPDEST DUP3 DUP1 SLOAD SWAP1 POP DUP2 LT ISZERO PUSH2 0x11F1 JUMPI PUSH1 0x0 DUP2 GT ISZERO PUSH2 0x119E JUMPI DUP2 PUSH1 0x40 MLOAD PUSH1 0x20 ADD PUSH2 0x118C SWAP2 SWAP1 PUSH2 0x22B3 JUMP JUMPDEST PUSH1 0x40 MLOAD PUSH1 0x20 DUP2 DUP4 SUB SUB DUP2 MSTORE SWAP1 PUSH1 0x40 MSTORE SWAP2 POP JUMPDEST DUP2 DUP4 DUP3 DUP2 SLOAD DUP2 LT PUSH2 0x11B2 JUMPI PUSH2 0x11B1 PUSH2 0x1B64 JUMP JUMPDEST JUMPDEST SWAP1 PUSH1 0x0 MSTORE PUSH1 0x20 PUSH1 0x0 KECCAK256 ADD PUSH1 0x40 MLOAD PUSH1 0x20 ADD PUSH2 0x11CD SWAP3 SWAP2 SWAP1 PUSH2 0x22D5 JUMP JUMPDEST PUSH1 0x40 MLOAD PUSH1 0x20 DUP2 DUP4 SUB SUB DUP2 MSTORE SWAP1 PUSH1 0x40 MSTORE SWAP2 POP DUP1 DUP1 PUSH2 0x11E9 SWAP1 PUSH2 0x1BC2 JUMP JUMPDEST SWAP2 POP POP PUSH2 0x1166 JUMP JUMPDEST POP DUP1 PUSH1 0x40 MLOAD PUSH1 0x20 ADD PUSH2 0x1203 SWAP2 SWAP1 PUSH2 0x2345 JUMP JUMPDEST PUSH1 0x40 MLOAD PUSH1 0x20 DUP2 DUP4 SUB SUB DUP2 MSTORE SWAP1 PUSH1 0x40 MSTORE SWAP1 POP DUP1 SWAP3 POP POP POP SWAP3 SWAP2 POP POP JUMP JUMPDEST PUSH1 0x60 PUSH1 0x0 PUSH1 0x1 DUP5 MLOAD PUSH2 0x1231 SWAP2 SWAP1 PUSH2 0x2111 JUMP JUMPDEST PUSH8 0xFFFFFFFFFFFFFFFF DUP2 GT ISZERO PUSH2 0x124A JUMPI PUSH2 0x1249 PUSH2 0x1601 JUMP JUMPDEST JUMPDEST PUSH1 0x40 MLOAD SWAP1 DUP1 DUP3 MSTORE DUP1 PUSH1 0x20 MUL PUSH1 0x20 ADD DUP3 ADD PUSH1 0x40 MSTORE DUP1 ISZERO PUSH2 0x127D JUMPI DUP2 PUSH1 0x20 ADD JUMPDEST PUSH1 0x60 DUP2 MSTORE PUSH1 0x20 ADD SWAP1 PUSH1 0x1 SWAP1 SUB SWAP1 DUP2 PUSH2 0x1268 JUMPI SWAP1 POP JUMPDEST POP SWAP1 POP PUSH1 0x0 JUMPDEST DUP5 MLOAD DUP2 LT ISZERO PUSH2 0x12D8 JUMPI DUP5 DUP2 DUP2 MLOAD DUP2 LT PUSH2 0x129F JUMPI PUSH2 0x129E PUSH2 0x1B64 JUMP JUMPDEST JUMPDEST PUSH1 0x20 MUL PUSH1 0x20 ADD ADD MLOAD DUP3 DUP3 DUP2 MLOAD DUP2 LT PUSH2 0x12BA JUMPI PUSH2 0x12B9 PUSH2 0x1B64 JUMP JUMPDEST JUMPDEST PUSH1 0x20 MUL PUSH1 0x20 ADD ADD DUP2 SWAP1 MSTORE POP DUP1 DUP1 PUSH2 0x12D0 SWAP1 PUSH2 0x1BC2 JUMP JUMPDEST SWAP2 POP POP PUSH2 0x1283 JUMP JUMPDEST POP DUP3 DUP2 DUP6 MLOAD DUP2 MLOAD DUP2 LT PUSH2 0x12EE JUMPI PUSH2 0x12ED PUSH2 0x1B64 JUMP JUMPDEST JUMPDEST PUSH1 0x20 MUL PUSH1 0x20 ADD ADD DUP2 SWAP1 MSTORE POP DUP1 SWAP2 POP POP SWAP3 SWAP2 POP POP JUMP JUMPDEST PUSH1 0x60 PUSH1 0x0 DUP1 JUMPDEST DUP4 MLOAD DUP2 LT ISZERO PUSH2 0x134E JUMPI DUP4 DUP2 DUP2 MLOAD DUP2 LT PUSH2 0x1325 JUMPI PUSH2 0x1324 PUSH2 0x1B64 JUMP JUMPDEST JUMPDEST PUSH1 0x20 MUL PUSH1 0x20 ADD ADD MLOAD MLOAD DUP3 PUSH2 0x1339 SWAP2 SWAP1 PUSH2 0x2111 JUMP JUMPDEST SWAP2 POP DUP1 DUP1 PUSH2 0x1346 SWAP1 PUSH2 0x1BC2 JUMP JUMPDEST SWAP2 POP POP PUSH2 0x1309 JUMP JUMPDEST POP PUSH1 0x0 DUP2 PUSH8 0xFFFFFFFFFFFFFFFF DUP2 GT ISZERO PUSH2 0x136B JUMPI PUSH2 0x136A PUSH2 0x1601 JUMP JUMPDEST JUMPDEST PUSH1 0x40 MLOAD SWAP1 DUP1 DUP3 MSTORE DUP1 PUSH1 0x1F ADD PUSH1 0x1F NOT AND PUSH1 0x20 ADD DUP3 ADD PUSH1 0x40 MSTORE DUP1 ISZERO PUSH2 0x139D JUMPI DUP2 PUSH1 0x20 ADD PUSH1 0x1 DUP3 MUL DUP1 CALLDATASIZE DUP4 CALLDATACOPY DUP1 DUP3 ADD SWAP2 POP POP SWAP1 POP JUMPDEST POP SWAP1 POP PUSH1 0x0 DUP1 JUMPDEST DUP6 MLOAD DUP2 LT ISZERO PUSH2 0x1474 JUMPI PUSH1 0x0 DUP7 DUP3 DUP2 MLOAD DUP2 LT PUSH2 0x13C2 JUMPI PUSH2 0x13C1 PUSH2 0x1B64 JUMP JUMPDEST JUMPDEST PUSH1 0x20 MUL PUSH1 0x20 ADD ADD MLOAD SWAP1 POP PUSH1 0x0 DUP2 MLOAD SWAP1 POP PUSH1 0x0 JUMPDEST DUP2 DUP2 LT ISZERO PUSH2 0x145E JUMPI DUP3 DUP2 DUP2 MLOAD DUP2 LT PUSH2 0x13F0 JUMPI PUSH2 0x13EF PUSH2 0x1B64 JUMP JUMPDEST JUMPDEST PUSH1 0x20 ADD ADD MLOAD PUSH1 0xF8 SHR PUSH1 0xF8 SHL DUP7 DUP7 DUP2 MLOAD DUP2 LT PUSH2 0x140E JUMPI PUSH2 0x140D PUSH2 0x1B64 JUMP JUMPDEST JUMPDEST PUSH1 0x20 ADD ADD SWAP1 PUSH31 0xFFFFFFFFFFFFFFFFFFFFFFFFFFFFFFFFFFFFFFFFFFFFFFFFFFFFFFFFFFFFFF NOT AND SWAP1 DUP2 PUSH1 0x0 BYTE SWAP1 MSTORE8 POP DUP5 DUP1 PUSH2 0x1448 SWAP1 PUSH2 0x1BC2 JUMP JUMPDEST SWAP6 POP POP DUP1 DUP1 PUSH2 0x1456 SWAP1 PUSH2 0x1BC2 JUMP JUMPDEST SWAP2 POP POP PUSH2 0x13D5 JUMP JUMPDEST POP POP POP DUP1 DUP1 PUSH2 0x146C SWAP1 PUSH2 0x1BC2 JUMP JUMPDEST SWAP2 POP POP PUSH2 0x13A4 JUMP JUMPDEST POP DUP2 SWAP4 POP POP POP POP SWAP2 SWAP1 POP JUMP JUMPDEST PUSH1 0x0 PUSH1 0x40 MLOAD SWAP1 POP SWAP1 JUMP JUMPDEST PUSH1 0x0 DUP1 REVERT JUMPDEST PUSH1 0x0 DUP1 REVERT JUMPDEST PUSH1 0x0 DUP2 SWAP1 POP SWAP2 SWAP1 POP JUMP JUMPDEST PUSH2 0x14A7 DUP2 PUSH2 0x1494 JUMP JUMPDEST DUP2 EQ PUSH2 0x14B2 JUMPI PUSH1 0x0 DUP1 REVERT JUMPDEST POP JUMP JUMPDEST PUSH1 0x0 DUP2 CALLDATALOAD SWAP1 POP PUSH2 0x14C4 DUP2 PUSH2 0x149E JUMP JUMPDEST SWAP3 SWAP2 POP POP JUMP JUMPDEST PUSH1 0x0 DUP1 REVERT JUMPDEST PUSH1 0x0 DUP1 REVERT JUMPDEST PUSH1 0x0 DUP1 REVERT JUMPDEST PUSH1 0x0 DUP1 DUP4 PUSH1 0x1F DUP5 ADD SLT PUSH2 0x14EF JUMPI PUSH2 0x14EE PUSH2 0x14CA JUMP JUMPDEST JUMPDEST DUP3 CALLDATALOAD SWAP1 POP PUSH8 0xFFFFFFFFFFFFFFFF DUP2 GT ISZERO PUSH2 0x150C JUMPI PUSH2 0x150B PUSH2 0x14CF JUMP JUMPDEST JUMPDEST PUSH1 0x20 DUP4 ADD SWAP2 POP DUP4 PUSH1 0x20 DUP3 MUL DUP4 ADD GT ISZERO PUSH2 0x1528 JUMPI PUSH2 0x1527 PUSH2 0x14D4 JUMP JUMPDEST JUMPDEST SWAP3 POP SWAP3 SWAP1 POP JUMP JUMPDEST PUSH1 0x0 DUP1 PUSH1 0x0 DUP1 PUSH1 0x0 DUP1 PUSH1 0x0 PUSH1 0xA0 DUP9 DUP11 SUB SLT ISZERO PUSH2 0x154E JUMPI PUSH2 0x154D PUSH2 0x148A JUMP JUMPDEST JUMPDEST PUSH1 0x0 PUSH2 0x155C DUP11 DUP3 DUP12 ADD PUSH2 0x14B5 JUMP JUMPDEST SWAP8 POP POP PUSH1 0x20 PUSH2 0x156D DUP11 DUP3 DUP12 ADD PUSH2 0x14B5 JUMP JUMPDEST SWAP7 POP POP PUSH1 0x40 PUSH2 0x157E DUP11 DUP3 DUP12 ADD PUSH2 0x14B5 JUMP JUMPDEST SWAP6 POP POP PUSH1 0x60 DUP9 ADD CALLDATALOAD PUSH8 0xFFFFFFFFFFFFFFFF DUP2 GT ISZERO PUSH2 0x159F JUMPI PUSH2 0x159E PUSH2 0x148F JUMP JUMPDEST JUMPDEST PUSH2 0x15AB DUP11 DUP3 DUP12 ADD PUSH2 0x14D9 JUMP JUMPDEST SWAP5 POP SWAP5 POP POP PUSH1 0x80 DUP9 ADD CALLDATALOAD PUSH8 0xFFFFFFFFFFFFFFFF DUP2 GT ISZERO PUSH2 0x15CE JUMPI PUSH2 0x15CD PUSH2 0x148F JUMP JUMPDEST JUMPDEST PUSH2 0x15DA DUP11 DUP3 DUP12 ADD PUSH2 0x14D9 JUMP JUMPDEST SWAP3 POP SWAP3 POP POP SWAP3 SWAP6 SWAP9 SWAP2 SWAP5 SWAP8 POP SWAP3 SWAP6 POP JUMP JUMPDEST PUSH1 0x0 DUP1 REVERT JUMPDEST PUSH1 0x0 PUSH1 0x1F NOT PUSH1 0x1F DUP4 ADD AND SWAP1 POP SWAP2 SWAP1 POP JUMP JUMPDEST PUSH32 0x4E487B7100000000000000000000000000000000000000000000000000000000 PUSH1 0x0 MSTORE PUSH1 0x41 PUSH1 0x4 MSTORE PUSH1 0x24 PUSH1 0x0 REVERT JUMPDEST PUSH2 0x1639 DUP3 PUSH2 0x15F0 JUMP JUMPDEST DUP2 ADD DUP2 DUP2 LT PUSH8 0xFFFFFFFFFFFFFFFF DUP3 GT OR ISZERO PUSH2 0x1658 JUMPI PUSH2 0x1657 PUSH2 0x1601 JUMP JUMPDEST JUMPDEST DUP1 PUSH1 0x40 MSTORE POP POP POP JUMP JUMPDEST PUSH1 0x0 PUSH2 0x166B PUSH2 0x1480 JUMP JUMPDEST SWAP1 POP PUSH2 0x1677 DUP3 DUP3 PUSH2 0x1630 JUMP JUMPDEST SWAP2 SWAP1 POP JUMP JUMPDEST PUSH1 0x0 PUSH8 0xFFFFFFFFFFFFFFFF DUP3 GT ISZERO PUSH2 0x1697 JUMPI PUSH2 0x1696 PUSH2 0x1601 JUMP JUMPDEST JUMPDEST PUSH2 0x16A0 DUP3 PUSH2 0x15F0 JUMP JUMPDEST SWAP1 POP PUSH1 0x20 DUP2 ADD SWAP1 POP SWAP2 SWAP1 POP JUMP JUMPDEST DUP3 DUP2 DUP4 CALLDATACOPY PUSH1 0x0 DUP4 DUP4 ADD MSTORE POP POP POP JUMP JUMPDEST PUSH1 0x0 PUSH2 0x16CF PUSH2 0x16CA DUP5 PUSH2 0x167C JUMP JUMPDEST PUSH2 0x1661 JUMP JUMPDEST SWAP1 POP DUP3 DUP2 MSTORE PUSH1 0x20 DUP2 ADD DUP5 DUP5 DUP5 ADD GT ISZERO PUSH2 0x16EB JUMPI PUSH2 0x16EA PUSH2 0x15EB JUMP JUMPDEST JUMPDEST PUSH2 0x16F6 DUP5 DUP3 DUP6 PUSH2 0x16AD JUMP JUMPDEST POP SWAP4 SWAP3 POP POP POP JUMP JUMPDEST PUSH1 0x0 DUP3 PUSH1 0x1F DUP4 ADD SLT PUSH2 0x1713 JUMPI PUSH2 0x1712 PUSH2 0x14CA JUMP JUMPDEST JUMPDEST DUP2 CALLDATALOAD PUSH2 0x1723 DUP5 DUP3 PUSH1 0x20 DUP7 ADD PUSH2 0x16BC JUMP JUMPDEST SWAP2 POP POP SWAP3 SWAP2 POP POP JUMP JUMPDEST PUSH1 0x0 DUP1 PUSH1 0x0 PUSH1 0x60 DUP5 DUP7 SUB SLT ISZERO PUSH2 0x1745 JUMPI PUSH2 0x1744 PUSH2 0x148A JUMP JUMPDEST JUMPDEST PUSH1 0x0 PUSH2 0x1753 DUP7 DUP3 DUP8 ADD PUSH2 0x14B5 JUMP JUMPDEST SWAP4 POP POP PUSH1 0x20 PUSH2 0x1764 DUP7 DUP3 DUP8 ADD PUSH2 0x14B5 JUMP JUMPDEST SWAP3 POP POP PUSH1 0x40 DUP5 ADD CALLDATALOAD PUSH8 0xFFFFFFFFFFFFFFFF DUP2 GT ISZERO PUSH2 0x1785 JUMPI PUSH2 0x1784 PUSH2 0x148F JUMP JUMPDEST JUMPDEST PUSH2 0x1791 DUP7 DUP3 DUP8 ADD PUSH2 0x16FE JUMP JUMPDEST SWAP2 POP POP SWAP3 POP SWAP3 POP SWAP3 JUMP JUMPDEST PUSH1 0x0 DUP2 ISZERO ISZERO SWAP1 POP SWAP2 SWAP1 POP JUMP JUMPDEST PUSH2 0x17B0 DUP2 PUSH2 0x179B JUMP JUMPDEST DUP3 MSTORE POP POP JUMP JUMPDEST PUSH1 0x0 PUSH1 0x20 DUP3 ADD SWAP1 POP PUSH2 0x17CB PUSH1 0x0 DUP4 ADD DUP5 PUSH2 0x17A7 JUMP JUMPDEST SWAP3 SWAP2 POP POP JUMP JUMPDEST PUSH1 0x0 DUP1 PUSH1 0x40 DUP4 DUP6 SUB SLT ISZERO PUSH2 0x17E8 JUMPI PUSH2 0x17E7 PUSH2 0x148A JUMP JUMPDEST JUMPDEST PUSH1 0x0 PUSH2 0x17F6 DUP6 DUP3 DUP7 ADD PUSH2 0x14B5 JUMP JUMPDEST SWAP3 POP POP PUSH1 0x20 PUSH2 0x1807 DUP6 DUP3 DUP7 ADD PUSH2 0x14B5 JUMP JUMPDEST SWAP2 POP POP SWAP3 POP SWAP3 SWAP1 POP JUMP JUMPDEST PUSH2 0x181A DUP2 PUSH2 0x1494 JUMP JUMPDEST DUP3 MSTORE POP POP JUMP JUMPDEST PUSH1 0x0 PUSH1 0x60 DUP3 ADD SWAP1 POP PUSH2 0x1835 PUSH1 0x0 DUP4 ADD DUP7 PUSH2 0x1811 JUMP JUMPDEST PUSH2 0x1842 PUSH1 0x20 DUP4 ADD DUP6 PUSH2 0x1811 JUMP JUMPDEST PUSH2 0x184F PUSH1 0x40 DUP4 ADD DUP5 PUSH2 0x1811 JUMP JUMPDEST SWAP5 SWAP4 POP POP POP POP JUMP JUMPDEST PUSH1 0x0 DUP2 SWAP1 POP SWAP2 SWAP1 POP JUMP JUMPDEST PUSH2 0x186A DUP2 PUSH2 0x1857 JUMP JUMPDEST DUP2 EQ PUSH2 0x1875 JUMPI PUSH1 0x0 DUP1 REVERT JUMPDEST POP JUMP JUMPDEST PUSH1 0x0 DUP2 CALLDATALOAD SWAP1 POP PUSH2 0x1887 DUP2 PUSH2 0x1861 JUMP JUMPDEST SWAP3 SWAP2 POP POP JUMP JUMPDEST PUSH1 0x0 DUP1 PUSH1 0x0 DUP1 PUSH1 0x0 DUP1 PUSH1 0x80 DUP8 DUP10 SUB SLT ISZERO PUSH2 0x18AA JUMPI PUSH2 0x18A9 PUSH2 0x148A JUMP JUMPDEST JUMPDEST PUSH1 0x0 PUSH2 0x18B8 DUP10 DUP3 DUP11 ADD PUSH2 0x14B5 JUMP JUMPDEST SWAP7 POP POP PUSH1 0x20 PUSH2 0x18C9 DUP10 DUP3 DUP11 ADD PUSH2 0x1878 JUMP JUMPDEST SWAP6 POP POP PUSH1 0x40 DUP8 ADD CALLDATALOAD PUSH8 0xFFFFFFFFFFFFFFFF DUP2 GT ISZERO PUSH2 0x18EA JUMPI PUSH2 0x18E9 PUSH2 0x148F JUMP JUMPDEST JUMPDEST PUSH2 0x18F6 DUP10 DUP3 DUP11 ADD PUSH2 0x14D9 JUMP JUMPDEST SWAP5 POP SWAP5 POP POP PUSH1 0x60 DUP8 ADD CALLDATALOAD PUSH8 0xFFFFFFFFFFFFFFFF DUP2 GT ISZERO PUSH2 0x1919 JUMPI PUSH2 0x1918 PUSH2 0x148F JUMP JUMPDEST JUMPDEST PUSH2 0x1925 DUP10 DUP3 DUP11 ADD PUSH2 0x14D9 JUMP JUMPDEST SWAP3 POP SWAP3 POP POP SWAP3 SWAP6 POP SWAP3 SWAP6 POP SWAP3 SWAP6 JUMP JUMPDEST PUSH1 0x0 DUP2 MLOAD SWAP1 POP SWAP2 SWAP1 POP JUMP JUMPDEST PUSH1 0x0 DUP3 DUP3 MSTORE PUSH1 0x20 DUP3 ADD SWAP1 POP SWAP3 SWAP2 POP POP JUMP JUMPDEST PUSH1 0x0 DUP2 SWAP1 POP PUSH1 0x20 DUP3 ADD SWAP1 POP SWAP2 SWAP1 POP JUMP JUMPDEST PUSH2 0x1969 DUP2 PUSH2 0x1494 JUMP JUMPDEST DUP3 MSTORE POP POP JUMP JUMPDEST PUSH1 0x0 PUSH2 0x197B DUP4 DUP4 PUSH2 0x1960 JUMP JUMPDEST PUSH1 0x20 DUP4 ADD SWAP1 POP SWAP3 SWAP2 POP POP JUMP JUMPDEST PUSH1 0x0 PUSH1 0x20 DUP3 ADD SWAP1 POP SWAP2 SWAP1 POP JUMP JUMPDEST PUSH1 0x0 PUSH2 0x199F DUP3 PUSH2 0x1934 JUMP JUMPDEST PUSH2 0x19A9 DUP2 DUP6 PUSH2 0x193F JUMP JUMPDEST SWAP4 POP PUSH2 0x19B4 DUP4 PUSH2 0x1950 JUMP JUMPDEST DUP1 PUSH1 0x0 JUMPDEST DUP4 DUP2 LT ISZERO PUSH2 0x19E5 JUMPI DUP2 MLOAD PUSH2 0x19CC DUP9 DUP3 PUSH2 0x196F JUMP JUMPDEST SWAP8 POP PUSH2 0x19D7 DUP4 PUSH2 0x1987 JUMP JUMPDEST SWAP3 POP POP PUSH1 0x1 DUP2 ADD SWAP1 POP PUSH2 0x19B8 JUMP JUMPDEST POP DUP6 SWAP4 POP POP POP POP SWAP3 SWAP2 POP POP JUMP JUMPDEST PUSH1 0x0 PUSH1 0x20 DUP3 ADD SWAP1 POP DUP2 DUP2 SUB PUSH1 0x0 DUP4 ADD MSTORE PUSH2 0x1A0C DUP2 DUP5 PUSH2 0x1994 JUMP JUMPDEST SWAP1 POP SWAP3 SWAP2 POP POP JUMP JUMPDEST PUSH1 0x0 PUSH1 0x20 DUP3 DUP5 SUB SLT ISZERO PUSH2 0x1A2A JUMPI PUSH2 0x1A29 PUSH2 0x148A JUMP JUMPDEST JUMPDEST PUSH1 0x0 PUSH2 0x1A38 DUP5 DUP3 DUP6 ADD PUSH2 0x14B5 JUMP JUMPDEST SWAP2 POP POP SWAP3 SWAP2 POP POP JUMP JUMPDEST PUSH1 0x0 PUSH1 0x20 DUP3 ADD SWAP1 POP PUSH2 0x1A56 PUSH1 0x0 DUP4 ADD DUP5 PUSH2 0x1811 JUMP JUMPDEST SWAP3 SWAP2 POP POP JUMP JUMPDEST PUSH1 0x0 DUP1 PUSH1 0x0 DUP1 PUSH1 0x80 DUP6 DUP8 SUB SLT ISZERO PUSH2 0x1A76 JUMPI PUSH2 0x1A75 PUSH2 0x148A JUMP JUMPDEST JUMPDEST PUSH1 0x0 PUSH2 0x1A84 DUP8 DUP3 DUP9 ADD PUSH2 0x14B5 JUMP JUMPDEST SWAP5 POP POP PUSH1 0x20 PUSH2 0x1A95 DUP8 DUP3 DUP9 ADD PUSH2 0x1878 JUMP JUMPDEST SWAP4 POP POP PUSH1 0x40 PUSH2 0x1AA6 DUP8 DUP3 DUP9 ADD PUSH2 0x1878 JUMP JUMPDEST SWAP3 POP POP PUSH1 0x60 PUSH2 0x1AB7 DUP8 DUP3 DUP9 ADD PUSH2 0x1878 JUMP JUMPDEST SWAP2 POP POP SWAP3 SWAP6 SWAP2 SWAP5 POP SWAP3 POP JUMP JUMPDEST PUSH1 0x0 DUP2 MLOAD SWAP1 POP SWAP2 SWAP1 POP JUMP JUMPDEST PUSH1 0x0 DUP3 DUP3 MSTORE PUSH1 0x20 DUP3 ADD SWAP1 POP SWAP3 SWAP2 POP POP JUMP JUMPDEST PUSH1 0x0 JUMPDEST DUP4 DUP2 LT ISZERO PUSH2 0x1AFD JUMPI DUP1 DUP3 ADD MLOAD DUP2 DUP5 ADD MSTORE PUSH1 0x20 DUP2 ADD SWAP1 POP PUSH2 0x1AE2 JUMP JUMPDEST PUSH1 0x0 DUP5 DUP5 ADD MSTORE POP POP POP POP JUMP JUMPDEST PUSH1 0x0 PUSH2 0x1B14 DUP3 PUSH2 0x1AC3 JUMP JUMPDEST PUSH2 0x1B1E DUP2 DUP6 PUSH2 0x1ACE JUMP JUMPDEST SWAP4 POP PUSH2 0x1B2E DUP2 DUP6 PUSH1 0x20 DUP7 ADD PUSH2 0x1ADF JUMP JUMPDEST PUSH2 0x1B37 DUP2 PUSH2 0x15F0 JUMP JUMPDEST DUP5 ADD SWAP2 POP POP SWAP3 SWAP2 POP POP JUMP JUMPDEST PUSH1 0x0 PUSH1 0x20 DUP3 ADD SWAP1 POP DUP2 DUP2 SUB PUSH1 0x0 DUP4 ADD MSTORE PUSH2 0x1B5C DUP2 DUP5 PUSH2 0x1B09 JUMP JUMPDEST SWAP1 POP SWAP3 SWAP2 POP POP JUMP JUMPDEST PUSH32 0x4E487B7100000000000000000000000000000000000000000000000000000000 PUSH1 0x0 MSTORE PUSH1 0x32 PUSH1 0x4 MSTORE PUSH1 0x24 PUSH1 0x0 REVERT JUMPDEST PUSH32 0x4E487B7100000000000000000000000000000000000000000000000000000000 PUSH1 0x0 MSTORE PUSH1 0x11 PUSH1 0x4 MSTORE PUSH1 0x24 PUSH1 0x0 REVERT JUMPDEST PUSH1 0x0 PUSH2 0x1BCD DUP3 PUSH2 0x1494 JUMP JUMPDEST SWAP2 POP PUSH32 0xFFFFFFFFFFFFFFFFFFFFFFFFFFFFFFFFFFFFFFFFFFFFFFFFFFFFFFFFFFFFFFFF DUP3 SUB PUSH2 0x1BFF JUMPI PUSH2 0x1BFE PUSH2 0x1B93 JUMP JUMPDEST JUMPDEST PUSH1 0x1 DUP3 ADD SWAP1 POP SWAP2 SWAP1 POP JUMP JUMPDEST PUSH1 0x0 DUP1 REVERT JUMPDEST PUSH1 0x0 DUP1 REVERT JUMPDEST PUSH1 0x0 DUP1 REVERT JUMPDEST PUSH1 0x0 DUP1 DUP4 CALLDATALOAD PUSH1 0x1 PUSH1 0x20 SUB DUP5 CALLDATASIZE SUB SUB DUP2 SLT PUSH2 0x1C36 JUMPI PUSH2 0x1C35 PUSH2 0x1C0A JUMP JUMPDEST JUMPDEST DUP1 DUP5 ADD SWAP3 POP DUP3 CALLDATALOAD SWAP2 POP PUSH8 0xFFFFFFFFFFFFFFFF DUP3 GT ISZERO PUSH2 0x1C58 JUMPI PUSH2 0x1C57 PUSH2 0x1C0F JUMP JUMPDEST JUMPDEST PUSH1 0x20 DUP4 ADD SWAP3 POP PUSH1 0x1 DUP3 MUL CALLDATASIZE SUB DUP4 SGT ISZERO PUSH2 0x1C74 JUMPI PUSH2 0x1C73 PUSH2 0x1C14 JUMP JUMPDEST JUMPDEST POP SWAP3 POP SWAP3 SWAP1 POP JUMP JUMPDEST PUSH1 0x0 DUP2 SWAP1 POP SWAP3 SWAP2 POP POP JUMP JUMPDEST PUSH1 0x0 PUSH2 0x1C92 DUP3 PUSH2 0x1AC3 JUMP JUMPDEST PUSH2 0x1C9C DUP2 DUP6 PUSH2 0x1C7C JUMP JUMPDEST SWAP4 POP PUSH2 0x1CAC DUP2 DUP6 PUSH1 0x20 DUP7 ADD PUSH2 0x1ADF JUMP JUMPDEST DUP1 DUP5 ADD SWAP2 POP POP SWAP3 SWAP2 POP POP JUMP JUMPDEST PUSH1 0x0 PUSH2 0x1CC4 DUP3 DUP5 PUSH2 0x1C87 JUMP JUMPDEST SWAP2 POP DUP2 SWAP1 POP SWAP3 SWAP2 POP POP JUMP JUMPDEST PUSH32 0x4E487B7100000000000000000000000000000000000000000000000000000000 PUSH1 0x0 MSTORE PUSH1 0x22 PUSH1 0x4 MSTORE PUSH1 0x24 PUSH1 0x0 REVERT JUMPDEST PUSH1 0x0 PUSH1 0x2 DUP3 DIV SWAP1 POP PUSH1 0x1 DUP3 AND DUP1 PUSH2 0x1D16 JUMPI PUSH1 0x7F DUP3 AND SWAP2 POP JUMPDEST PUSH1 0x20 DUP3 LT DUP2 SUB PUSH2 0x1D29 JUMPI PUSH2 0x1D28 PUSH2 0x1CCF JUMP JUMPDEST JUMPDEST POP SWAP2 SWAP1 POP JUMP JUMPDEST PUSH1 0x0 DUP2 SWAP1 POP DUP2 PUSH1 0x0 MSTORE PUSH1 0x20 PUSH1 0x0 KECCAK256 SWAP1 POP SWAP2 SWAP1 POP JUMP JUMPDEST PUSH1 0x0 PUSH1 0x20 PUSH1 0x1F DUP4 ADD DIV SWAP1 POP SWAP2 SWAP1 POP JUMP JUMPDEST PUSH1 0x0 DUP3 DUP3 SHL SWAP1 POP SWAP3 SWAP2 POP POP JUMP JUMPDEST PUSH1 0x0 PUSH1 0x8 DUP4 MUL PUSH2 0x1D91 PUSH32 0xFFFFFFFFFFFFFFFFFFFFFFFFFFFFFFFFFFFFFFFFFFFFFFFFFFFFFFFFFFFFFFFF DUP3 PUSH2 0x1D54 JUMP JUMPDEST PUSH2 0x1D9B DUP7 DUP4 PUSH2 0x1D54 JUMP JUMPDEST SWAP6 POP DUP1 NOT DUP5 AND SWAP4 POP DUP1 DUP7 AND DUP5 OR SWAP3 POP POP POP SWAP4 SWAP3 POP POP POP JUMP JUMPDEST PUSH1 0x0 DUP2 SWAP1 POP SWAP2 SWAP1 POP JUMP JUMPDEST PUSH1 0x0 PUSH2 0x1DD8 PUSH2 0x1DD3 PUSH2 0x1DCE DUP5 PUSH2 0x1494 JUMP JUMPDEST PUSH2 0x1DB3 JUMP JUMPDEST PUSH2 0x1494 JUMP JUMPDEST SWAP1 POP SWAP2 SWAP1 POP JUMP JUMPDEST PUSH1 0x0 DUP2 SWAP1 POP SWAP2 SWAP1 POP JUMP JUMPDEST PUSH2 0x1DF2 DUP4 PUSH2 0x1DBD JUMP JUMPDEST PUSH2 0x1E06 PUSH2 0x1DFE DUP3 PUSH2 0x1DDF JUMP JUMPDEST DUP5 DUP5 SLOAD PUSH2 0x1D61 JUMP JUMPDEST DUP3 SSTORE POP POP POP POP JUMP JUMPDEST PUSH1 0x0 SWAP1 JUMP JUMPDEST PUSH2 0x1E1B PUSH2 0x1E0E JUMP JUMPDEST PUSH2 0x1E26 DUP2 DUP5 DUP5 PUSH2 0x1DE9 JUMP JUMPDEST POP POP POP JUMP JUMPDEST JUMPDEST DUP2 DUP2 LT ISZERO PUSH2 0x1E4A JUMPI PUSH2 0x1E3F PUSH1 0x0 DUP3 PUSH2 0x1E13 JUMP JUMPDEST PUSH1 0x1 DUP2 ADD SWAP1 POP PUSH2 0x1E2C JUMP JUMPDEST POP POP JUMP JUMPDEST PUSH1 0x1F DUP3 GT ISZERO PUSH2 0x1E8F JUMPI PUSH2 0x1E60 DUP2 PUSH2 0x1D2F JUMP JUMPDEST PUSH2 0x1E69 DUP5 PUSH2 0x1D44 JUMP JUMPDEST DUP2 ADD PUSH1 0x20 DUP6 LT ISZERO PUSH2 0x1E78 JUMPI DUP2 SWAP1 POP JUMPDEST PUSH2 0x1E8C PUSH2 0x1E84 DUP6 PUSH2 0x1D44 JUMP JUMPDEST DUP4 ADD DUP3 PUSH2 0x1E2B JUMP JUMPDEST POP POP JUMPDEST POP POP POP JUMP JUMPDEST PUSH1 0x0 DUP3 DUP3 SHR SWAP1 POP SWAP3 SWAP2 POP POP JUMP JUMPDEST PUSH1 0x0 PUSH2 0x1EB2 PUSH1 0x0 NOT DUP5 PUSH1 0x8 MUL PUSH2 0x1E94 JUMP JUMPDEST NOT DUP1 DUP4 AND SWAP2 POP POP SWAP3 SWAP2 POP POP JUMP JUMPDEST PUSH1 0x0 PUSH2 0x1ECB DUP4 DUP4 PUSH2 0x1EA1 JUMP JUMPDEST SWAP2 POP DUP3 PUSH1 0x2 MUL DUP3 OR SWAP1 POP SWAP3 SWAP2 POP POP JUMP JUMPDEST PUSH2 0x1EE4 DUP3 PUSH2 0x1AC3 JUMP JUMPDEST PUSH8 0xFFFFFFFFFFFFFFFF DUP2 GT ISZERO PUSH2 0x1EFD JUMPI PUSH2 0x1EFC PUSH2 0x1601 JUMP JUMPDEST JUMPDEST PUSH2 0x1F07 DUP3 SLOAD PUSH2 0x1CFE JUMP JUMPDEST PUSH2 0x1F12 DUP3 DUP3 DUP6 PUSH2 0x1E4E JUMP JUMPDEST PUSH1 0x0 PUSH1 0x20 SWAP1 POP PUSH1 0x1F DUP4 GT PUSH1 0x1 DUP2 EQ PUSH2 0x1F45 JUMPI PUSH1 0x0 DUP5 ISZERO PUSH2 0x1F33 JUMPI DUP3 DUP8 ADD MLOAD SWAP1 POP JUMPDEST PUSH2 0x1F3D DUP6 DUP3 PUSH2 0x1EBF JUMP JUMPDEST DUP7 SSTORE POP PUSH2 0x1FA5 JUMP JUMPDEST PUSH1 0x1F NOT DUP5 AND PUSH2 0x1F53 DUP7 PUSH2 0x1D2F JUMP JUMPDEST PUSH1 0x0 JUMPDEST DUP3 DUP2 LT ISZERO PUSH2 0x1F7B JUMPI DUP5 DUP10 ADD MLOAD DUP3 SSTORE PUSH1 0x1 DUP3 ADD SWAP2 POP PUSH1 0x20 DUP6 ADD SWAP5 POP PUSH1 0x20 DUP2 ADD SWAP1 POP PUSH2 0x1F56 JUMP JUMPDEST DUP7 DUP4 LT ISZERO PUSH2 0x1F98 JUMPI DUP5 DUP10 ADD MLOAD PUSH2 0x1F94 PUSH1 0x1F DUP10 AND DUP3 PUSH2 0x1EA1 JUMP JUMPDEST DUP4 SSTORE POP JUMPDEST PUSH1 0x1 PUSH1 0x2 DUP9 MUL ADD DUP9 SSTORE POP POP POP JUMPDEST POP POP POP POP POP POP JUMP JUMPDEST PUSH32 0x496E76616C6964205F656E6454696D6500000000000000000000000000000000 PUSH1 0x0 DUP3 ADD MSTORE POP JUMP JUMPDEST PUSH1 0x0 PUSH2 0x1FE3 PUSH1 0x10 DUP4 PUSH2 0x1ACE JUMP JUMPDEST SWAP2 POP PUSH2 0x1FEE DUP3 PUSH2 0x1FAD JUMP JUMPDEST PUSH1 0x20 DUP3 ADD SWAP1 POP SWAP2 SWAP1 POP JUMP JUMPDEST PUSH1 0x0 PUSH1 0x20 DUP3 ADD SWAP1 POP DUP2 DUP2 SUB PUSH1 0x0 DUP4 ADD MSTORE PUSH2 0x2012 DUP2 PUSH2 0x1FD6 JUMP JUMPDEST SWAP1 POP SWAP2 SWAP1 POP JUMP JUMPDEST PUSH1 0x0 DUP2 SWAP1 POP SWAP3 SWAP2 POP POP JUMP JUMPDEST PUSH1 0x0 PUSH2 0x2030 DUP4 DUP6 PUSH2 0x2019 JUMP JUMPDEST SWAP4 POP PUSH2 0x203D DUP4 DUP6 DUP5 PUSH2 0x16AD JUMP JUMPDEST DUP3 DUP5 ADD SWAP1 POP SWAP4 SWAP3 POP POP POP JUMP JUMPDEST PUSH1 0x0 PUSH2 0x2056 DUP3 DUP5 DUP7 PUSH2 0x2024 JUMP JUMPDEST SWAP2 POP DUP2 SWAP1 POP SWAP4 SWAP3 POP POP POP JUMP JUMPDEST PUSH1 0x0 DUP2 SWAP1 POP DUP2 PUSH1 0x0 MSTORE PUSH1 0x20 PUSH1 0x0 KECCAK256 SWAP1 POP SWAP2 SWAP1 POP JUMP JUMPDEST PUSH1 0x0 DUP2 SLOAD PUSH2 0x2084 DUP2 PUSH2 0x1CFE JUMP JUMPDEST PUSH2 0x208E DUP2 DUP7 PUSH2 0x2019 JUMP JUMPDEST SWAP5 POP PUSH1 0x1 DUP3 AND PUSH1 0x0 DUP2 EQ PUSH2 0x20A9 JUMPI PUSH1 0x1 DUP2 EQ PUSH2 0x20BE JUMPI PUSH2 0x20F1 JUMP JUMPDEST PUSH1 0xFF NOT DUP4 AND DUP7 MSTORE DUP2 ISZERO ISZERO DUP3 MUL DUP7 ADD SWAP4 POP PUSH2 0x20F1 JUMP JUMPDEST PUSH2 0x20C7 DUP6 PUSH2 0x2062 JUMP JUMPDEST PUSH1 0x0 JUMPDEST DUP4 DUP2 LT ISZERO PUSH2 0x20E9 JUMPI DUP2 SLOAD DUP2 DUP10 ADD MSTORE PUSH1 0x1 DUP3 ADD SWAP2 POP PUSH1 0x20 DUP2 ADD SWAP1 POP PUSH2 0x20CA JUMP JUMPDEST DUP4 DUP9 ADD SWAP6 POP POP POP JUMPDEST POP POP POP SWAP3 SWAP2 POP POP JUMP JUMPDEST PUSH1 0x0 PUSH2 0x2106 DUP3 DUP5 PUSH2 0x2077 JUMP JUMPDEST SWAP2 POP DUP2 SWAP1 POP SWAP3 SWAP2 POP POP JUMP JUMPDEST PUSH1 0x0 PUSH2 0x211C DUP3 PUSH2 0x1494 JUMP JUMPDEST SWAP2 POP PUSH2 0x2127 DUP4 PUSH2 0x1494 JUMP JUMPDEST SWAP3 POP DUP3 DUP3 ADD SWAP1 POP DUP1 DUP3 GT ISZERO PUSH2 0x213F JUMPI PUSH2 0x213E PUSH2 0x1B93 JUMP JUMPDEST JUMPDEST SWAP3 SWAP2 POP POP JUMP JUMPDEST PUSH1 0x0 DUP2 SWAP1 POP SWAP2 SWAP1 POP JUMP JUMPDEST PUSH2 0x2160 PUSH2 0x215B DUP3 PUSH2 0x1494 JUMP JUMPDEST PUSH2 0x2145 JUMP JUMPDEST DUP3 MSTORE POP POP JUMP JUMPDEST PUSH32 0x2C00000000000000000000000000000000000000000000000000000000000000 PUSH1 0x0 DUP3 ADD MSTORE POP JUMP JUMPDEST PUSH1 0x0 PUSH2 0x219C PUSH1 0x1 DUP4 PUSH2 0x1C7C JUMP JUMPDEST SWAP2 POP PUSH2 0x21A7 DUP3 PUSH2 0x2166 JUMP JUMPDEST PUSH1 0x1 DUP3 ADD SWAP1 POP SWAP2 SWAP1 POP JUMP JUMPDEST PUSH1 0x0 PUSH2 0x21BE DUP3 DUP8 PUSH2 0x214F JUMP JUMPDEST PUSH1 0x20 DUP3 ADD SWAP2 POP PUSH2 0x21CD DUP3 PUSH2 0x218F JUMP JUMPDEST SWAP2 POP PUSH2 0x21D9 DUP3 DUP7 PUSH2 0x214F JUMP JUMPDEST PUSH1 0x20 DUP3 ADD SWAP2 POP PUSH2 0x21E8 DUP3 PUSH2 0x218F JUMP JUMPDEST SWAP2 POP PUSH2 0x21F4 DUP3 DUP6 PUSH2 0x1C87 JUMP JUMPDEST SWAP2 POP PUSH2 0x21FF DUP3 PUSH2 0x218F JUMP JUMPDEST SWAP2 POP PUSH2 0x220B DUP3 DUP5 PUSH2 0x1C87 JUMP JUMPDEST SWAP2 POP DUP2 SWAP1 POP SWAP6 SWAP5 POP POP POP POP POP JUMP JUMPDEST PUSH1 0x0 DUP2 SLOAD PUSH2 0x2226 DUP2 PUSH2 0x1CFE JUMP JUMPDEST PUSH2 0x2230 DUP2 DUP7 PUSH2 0x1C7C JUMP JUMPDEST SWAP5 POP PUSH1 0x1 DUP3 AND PUSH1 0x0 DUP2 EQ PUSH2 0x224B JUMPI PUSH1 0x1 DUP2 EQ PUSH2 0x2260 JUMPI PUSH2 0x2293 JUMP JUMPDEST PUSH1 0xFF NOT DUP4 AND DUP7 MSTORE DUP2 ISZERO ISZERO DUP3 MUL DUP7 ADD SWAP4 POP PUSH2 0x2293 JUMP JUMPDEST PUSH2 0x2269 DUP6 PUSH2 0x1D2F JUMP JUMPDEST PUSH1 0x0 JUMPDEST DUP4 DUP2 LT ISZERO PUSH2 0x228B JUMPI DUP2 SLOAD DUP2 DUP10 ADD MSTORE PUSH1 0x1 DUP3 ADD SWAP2 POP PUSH1 0x20 DUP2 ADD SWAP1 POP PUSH2 0x226C JUMP JUMPDEST DUP4 DUP9 ADD SWAP6 POP POP POP JUMPDEST POP POP POP SWAP3 SWAP2 POP POP JUMP JUMPDEST PUSH1 0x0 PUSH2 0x22A8 DUP3 DUP5 PUSH2 0x2219 JUMP JUMPDEST SWAP2 POP DUP2 SWAP1 POP SWAP3 SWAP2 POP POP JUMP JUMPDEST PUSH1 0x0 PUSH2 0x22BF DUP3 DUP5 PUSH2 0x1C87 JUMP JUMPDEST SWAP2 POP PUSH2 0x22CA DUP3 PUSH2 0x218F JUMP JUMPDEST SWAP2 POP DUP2 SWAP1 POP SWAP3 SWAP2 POP POP JUMP JUMPDEST PUSH1 0x0 PUSH2 0x22E1 DUP3 DUP6 PUSH2 0x1C87 JUMP JUMPDEST SWAP2 POP PUSH2 0x22ED DUP3 DUP5 PUSH2 0x2219 JUMP JUMPDEST SWAP2 POP DUP2 SWAP1 POP SWAP4 SWAP3 POP POP POP JUMP JUMPDEST PUSH32 0x5D00000000000000000000000000000000000000000000000000000000000000 PUSH1 0x0 DUP3 ADD MSTORE POP JUMP JUMPDEST PUSH1 0x0 PUSH2 0x232F PUSH1 0x1 DUP4 PUSH2 0x1C7C JUMP JUMPDEST SWAP2 POP PUSH2 0x233A DUP3 PUSH2 0x22F9 JUMP JUMPDEST PUSH1 0x1 DUP3 ADD SWAP1 POP SWAP2 SWAP1 POP JUMP JUMPDEST PUSH1 0x0 PUSH2 0x2351 DUP3 DUP5 PUSH2 0x1C87 JUMP JUMPDEST SWAP2 POP PUSH2 0x235C DUP3 PUSH2 0x2322 JUMP JUMPDEST SWAP2 POP DUP2 SWAP1 POP SWAP3 SWAP2 POP POP JUMP INVALID LOG2 PUSH5 0x6970667358 0x22 SLT KECCAK256 PUSH25 0x85B1C75AA898D669D3063555FB1ADABAE6C2FC3E1D1A8EF329 0xB1 OR 0xE5 CHAINID INVALID 0xB7 PUSH5 0x736F6C6343 STOP ADDMOD SGT STOP CALLER "},"methodIdentifiers":{"patientIDs(uint256)":"7fb8998f","patientStudyCategories(uint256,uint256,string)":"302c8ef7","patientStudyConsents(uint256,uint256)":"49633dc7","patientStudyElements(uint256,uint256,string)":"fcf03be0","queryForPatient(uint256,int256,int256,int256)":"df6bd4ba","queryForResearcher(uint256,int256,string[],string[])":"76f8487f","storeConsentFromJSON(uint256,uint256,uint256,string[],string[])":"127f9ecb","storeRecord(uint256,uint256,uint256,string[],string[])":"21737237","studyIDs(uint256)":"df4f2a7a"}}}}}